{
	"demo.sol": {
		"Counter": {
			"abi": [
				{
					"inputs": [],
					"stateMutability": "nonpayable",
					"type": "constructor"
				},
				{
					"inputs": [],
					"name": "count",
					"outputs": [],
					"stateMutability": "nonpayable",
					"type": "function"
				},
				{
					"inputs": [],
					"name": "get",
					"outputs": [
						{
							"internalType": "uint256",
							"name": "",
							"type": "uint256"
						},
						{
							"internalType": "uint256",
							"name": "",
							"type": "uint256"
						}
					],
					"stateMutability": "view",
					"type": "function"
				}
			],
			"devdoc": {
				"kind": "dev",
				"methods": {},
				"version": 1
			},
			"evm": {
				"assembly": "    /* \"demo.sol\":59:325  contract Counter {... */\n  mstore(0x40, 0x80)\n    /* \"demo.sol\":104:148  constructor() {... */\n  callvalue\n  dup1\n  iszero\n  tag_1\n  jumpi\n  revert(0x00, 0x00)\ntag_1:\n  pop\n    /* \"demo.sol\":139:140  0 */\n  0x00\n    /* \"demo.sol\":129:136  counter */\n  0x00\n    /* \"demo.sol\":129:140  counter = 0 */\n  dup2\n  swap1\n  sstore\n  pop\n    /* \"demo.sol\":59:325  contract Counter {... */\n  dataSize(sub_0)\n  dup1\n  dataOffset(sub_0)\n  0x00\n  codecopy\n  0x00\n  return\nstop\n\nsub_0: assembly {\n        /* \"demo.sol\":59:325  contract Counter {... */\n      mstore(0x40, 0x80)\n      callvalue\n      dup1\n      iszero\n      tag_1\n      jumpi\n      revert(0x00, 0x00)\n    tag_1:\n      pop\n      jumpi(tag_2, lt(calldatasize, 0x04))\n      shr(0xe0, calldataload(0x00))\n      dup1\n      0x06661abd\n      eq\n      tag_3\n      jumpi\n      dup1\n      0x6d4ce63c\n      eq\n      tag_4\n      jumpi\n    tag_2:\n      revert(0x00, 0x00)\n        /* \"demo.sol\":156:220  function count() public {... */\n    tag_3:\n      tag_5\n      tag_6\n      jump\t// in\n    tag_5:\n      stop\n        /* \"demo.sol\":228:322  function get() public view returns (uint, uint) {... */\n    tag_4:\n      tag_7\n      tag_8\n      jump\t// in\n    tag_7:\n      mload(0x40)\n      tag_9\n      swap3\n      swap2\n      swap1\n      tag_10\n      jump\t// in\n    tag_9:\n      mload(0x40)\n      dup1\n      swap2\n      sub\n      swap1\n      return\n        /* \"demo.sol\":156:220  function count() public {... */\n    tag_6:\n        /* \"demo.sol\":211:212  1 */\n      0x01\n        /* \"demo.sol\":201:208  counter */\n      sload(0x00)\n        /* \"demo.sol\":201:212  counter + 1 */\n      tag_12\n      swap2\n      swap1\n      tag_13\n      jump\t// in\n    tag_12:\n        /* \"demo.sol\":191:198  counter */\n      0x00\n        /* \"demo.sol\":191:212  counter = counter + 1 */\n      dup2\n      swap1\n      sstore\n      pop\n        /* \"demo.sol\":156:220  function count() public {... */\n      jump\t// out\n        /* \"demo.sol\":228:322  function get() public view returns (uint, uint) {... */\n    tag_8:\n        /* \"demo.sol\":264:268  uint */\n      0x00\n        /* \"demo.sol\":270:274  uint */\n      0x00\n        /* \"demo.sol\":295:302  counter */\n      sload(0x00)\n        /* \"demo.sol\":312:313  3 */\n      0x03\n        /* \"demo.sol\":304:311  counter */\n      sload(0x00)\n        /* \"demo.sol\":304:313  counter*3 */\n      tag_15\n      swap2\n      swap1\n      tag_16\n      jump\t// in\n    tag_15:\n        /* \"demo.sol\":287:314  return (counter, counter*3) */\n      swap2\n      pop\n      swap2\n      pop\n        /* \"demo.sol\":228:322  function get() public view returns (uint, uint) {... */\n      swap1\n      swap2\n      jump\t// out\n        /* \"#utility.yul\":7:84   */\n    tag_17:\n        /* \"#utility.yul\":44:51   */\n      0x00\n        /* \"#utility.yul\":73:78   */\n      dup2\n        /* \"#utility.yul\":62:78   */\n      swap1\n      pop\n        /* \"#utility.yul\":7:84   */\n      swap2\n      swap1\n      pop\n      jump\t// out\n        /* \"#utility.yul\":90:208   */\n    tag_18:\n        /* \"#utility.yul\":177:201   */\n      tag_23\n        /* \"#utility.yul\":195:200   */\n      dup2\n        /* \"#utility.yul\":177:201   */\n      tag_17\n      jump\t// in\n    tag_23:\n        /* \"#utility.yul\":172:175   */\n      dup3\n        /* \"#utility.yul\":165:202   */\n      mstore\n        /* \"#utility.yul\":90:208   */\n      pop\n      pop\n      jump\t// out\n        /* \"#utility.yul\":214:546   */\n    tag_10:\n        /* \"#utility.yul\":335:339   */\n      0x00\n        /* \"#utility.yul\":373:375   */\n      0x40\n        /* \"#utility.yul\":362:371   */\n      dup3\n        /* \"#utility.yul\":358:376   */\n      add\n        /* \"#utility.yul\":350:376   */\n      swap1\n      pop\n        /* \"#utility.yul\":386:457   */\n      tag_25\n        /* \"#utility.yul\":454:455   */\n      0x00\n        /* \"#utility.yul\":443:452   */\n      dup4\n        /* \"#utility.yul\":439:456   */\n      add\n        /* \"#utility.yul\":430:436   */\n      dup6\n        /* \"#utility.yul\":386:457   */\n      tag_18\n      jump\t// in\n    tag_25:\n        /* \"#utility.yul\":467:539   */\n      tag_26\n        /* \"#utility.yul\":535:537   */\n      0x20\n        /* \"#utility.yul\":524:533   */\n      dup4\n        /* \"#utility.yul\":520:538   */\n      add\n        /* \"#utility.yul\":511:517   */\n      dup5\n        /* \"#utility.yul\":467:539   */\n      tag_18\n      jump\t// in\n    tag_26:\n        /* \"#utility.yul\":214:546   */\n      swap4\n      swap3\n      pop\n      pop\n      pop\n      jump\t// out\n        /* \"#utility.yul\":552:732   */\n    tag_19:\n        /* \"#utility.yul\":600:677   */\n      0x4e487b7100000000000000000000000000000000000000000000000000000000\n        /* \"#utility.yul\":597:598   */\n      0x00\n        /* \"#utility.yul\":590:678   */\n      mstore\n        /* \"#utility.yul\":697:701   */\n      0x11\n        /* \"#utility.yul\":694:695   */\n      0x04\n        /* \"#utility.yul\":687:702   */\n      mstore\n        /* \"#utility.yul\":721:725   */\n      0x24\n        /* \"#utility.yul\":718:719   */\n      0x00\n        /* \"#utility.yul\":711:726   */\n      revert\n        /* \"#utility.yul\":738:929   */\n    tag_13:\n        /* \"#utility.yul\":778:781   */\n      0x00\n        /* \"#utility.yul\":797:817   */\n      tag_29\n        /* \"#utility.yul\":815:816   */\n      dup3\n        /* \"#utility.yul\":797:817   */\n      tag_17\n      jump\t// in\n    tag_29:\n        /* \"#utility.yul\":792:817   */\n      swap2\n      pop\n        /* \"#utility.yul\":831:851   */\n      tag_30\n        /* \"#utility.yul\":849:850   */\n      dup4\n        /* \"#utility.yul\":831:851   */\n      tag_17\n      jump\t// in\n    tag_30:\n        /* \"#utility.yul\":826:851   */\n      swap3\n      pop\n        /* \"#utility.yul\":874:875   */\n      dup3\n        /* \"#utility.yul\":871:872   */\n      dup3\n        /* \"#utility.yul\":867:876   */\n      add\n        /* \"#utility.yul\":860:876   */\n      swap1\n      pop\n        /* \"#utility.yul\":895:898   */\n      dup1\n        /* \"#utility.yul\":892:893   */\n      dup3\n        /* \"#utility.yul\":889:899   */\n      gt\n        /* \"#utility.yul\":886:922   */\n      iszero\n      tag_31\n      jumpi\n        /* \"#utility.yul\":902:920   */\n      tag_32\n      tag_19\n      jump\t// in\n    tag_32:\n        /* \"#utility.yul\":886:922   */\n    tag_31:\n        /* \"#utility.yul\":738:929   */\n      swap3\n      swap2\n      pop\n      pop\n      jump\t// out\n        /* \"#utility.yul\":935:1345   */\n    tag_16:\n        /* \"#utility.yul\":975:982   */\n      0x00\n        /* \"#utility.yul\":998:1018   */\n      tag_34\n        /* \"#utility.yul\":1016:1017   */\n      dup3\n        /* \"#utility.yul\":998:1018   */\n      tag_17\n      jump\t// in\n    tag_34:\n        /* \"#utility.yul\":993:1018   */\n      swap2\n      pop\n        /* \"#utility.yul\":1032:1052   */\n      tag_35\n        /* \"#utility.yul\":1050:1051   */\n      dup4\n        /* \"#utility.yul\":1032:1052   */\n      tag_17\n      jump\t// in\n    tag_35:\n        /* \"#utility.yul\":1027:1052   */\n      swap3\n      pop\n        /* \"#utility.yul\":1087:1088   */\n      dup3\n        /* \"#utility.yul\":1084:1085   */\n      dup3\n        /* \"#utility.yul\":1080:1089   */\n      mul\n        /* \"#utility.yul\":1109:1139   */\n      tag_36\n        /* \"#utility.yul\":1127:1138   */\n      dup2\n        /* \"#utility.yul\":1109:1139   */\n      tag_17\n      jump\t// in\n    tag_36:\n        /* \"#utility.yul\":1098:1139   */\n      swap2\n      pop\n        /* \"#utility.yul\":1288:1289   */\n      dup3\n        /* \"#utility.yul\":1279:1286   */\n      dup3\n        /* \"#utility.yul\":1275:1290   */\n      div\n        /* \"#utility.yul\":1272:1273   */\n      dup5\n        /* \"#utility.yul\":1269:1291   */\n      eq\n        /* \"#utility.yul\":1249:1250   */\n      dup4\n        /* \"#utility.yul\":1242:1251   */\n      iszero\n        /* \"#utility.yul\":1222:1305   */\n      or\n        /* \"#utility.yul\":1199:1338   */\n      tag_37\n      jumpi\n        /* \"#utility.yul\":1318:1336   */\n      tag_38\n      tag_19\n      jump\t// in\n    tag_38:\n        /* \"#utility.yul\":1199:1338   */\n    tag_37:\n        /* \"#utility.yul\":983:1345   */\n      pop\n        /* \"#utility.yul\":935:1345   */\n      swap3\n      swap2\n      pop\n      pop\n      jump\t// out\n\n    auxdata: 0xa26469706673582212208e62224fe411b3059e79971bb65c0b937c46b62f463ab263909ef2b4bc13569364736f6c634300081e0033\n}\n",
				"bytecode": {
					"linkReferences": {},
					"object": "6080604052348015600e575f5ffd5b505f5f819055506101a6806100225f395ff3fe608060405234801561000f575f5ffd5b5060043610610034575f3560e01c806306661abd146100385780636d4ce63c14610042575b5f5ffd5b610040610061565b005b61004a610076565b6040516100589291906100a8565b60405180910390f35b60015f5461006f91906100fc565b5f81905550565b5f5f5f5460035f54610088919061012f565b915091509091565b5f819050919050565b6100a281610090565b82525050565b5f6040820190506100bb5f830185610099565b6100c86020830184610099565b9392505050565b7f4e487b71000000000000000000000000000000000000000000000000000000005f52601160045260245ffd5b5f61010682610090565b915061011183610090565b9250828201905080821115610129576101286100cf565b5b92915050565b5f61013982610090565b915061014483610090565b925082820261015281610090565b91508282048414831517610169576101686100cf565b5b509291505056fea26469706673582212208e62224fe411b3059e79971bb65c0b937c46b62f463ab263909ef2b4bc13569364736f6c634300081e0033",
					"opcodes": "PUSH1 0x80 PUSH1 0x40 MSTORE CALLVALUE DUP1 ISZERO PUSH1 0xE JUMPI PUSH0 PUSH0 REVERT JUMPDEST POP PUSH0 PUSH0 DUP2 SWAP1 SSTORE POP PUSH2 0x1A6 DUP1 PUSH2 0x22 PUSH0 CODECOPY PUSH0 RETURN INVALID PUSH1 0x80 PUSH1 0x40 MSTORE CALLVALUE DUP1 ISZERO PUSH2 0xF JUMPI PUSH0 PUSH0 REVERT JUMPDEST POP PUSH1 0x4 CALLDATASIZE LT PUSH2 0x34 JUMPI PUSH0 CALLDATALOAD PUSH1 0xE0 SHR DUP1 PUSH4 0x6661ABD EQ PUSH2 0x38 JUMPI DUP1 PUSH4 0x6D4CE63C EQ PUSH2 0x42 JUMPI JUMPDEST PUSH0 PUSH0 REVERT JUMPDEST PUSH2 0x40 PUSH2 0x61 JUMP JUMPDEST STOP JUMPDEST PUSH2 0x4A PUSH2 0x76 JUMP JUMPDEST PUSH1 0x40 MLOAD PUSH2 0x58 SWAP3 SWAP2 SWAP1 PUSH2 0xA8 JUMP JUMPDEST PUSH1 0x40 MLOAD DUP1 SWAP2 SUB SWAP1 RETURN JUMPDEST PUSH1 0x1 PUSH0 SLOAD PUSH2 0x6F SWAP2 SWAP1 PUSH2 0xFC JUMP JUMPDEST PUSH0 DUP2 SWAP1 SSTORE POP JUMP JUMPDEST PUSH0 PUSH0 PUSH0 SLOAD PUSH1 0x3 PUSH0 SLOAD PUSH2 0x88 SWAP2 SWAP1 PUSH2 0x12F JUMP JUMPDEST SWAP2 POP SWAP2 POP SWAP1 SWAP2 JUMP JUMPDEST PUSH0 DUP2 SWAP1 POP SWAP2 SWAP1 POP JUMP JUMPDEST PUSH2 0xA2 DUP2 PUSH2 0x90 JUMP JUMPDEST DUP3 MSTORE POP POP JUMP JUMPDEST PUSH0 PUSH1 0x40 DUP3 ADD SWAP1 POP PUSH2 0xBB PUSH0 DUP4 ADD DUP6 PUSH2 0x99 JUMP JUMPDEST PUSH2 0xC8 PUSH1 0x20 DUP4 ADD DUP5 PUSH2 0x99 JUMP JUMPDEST SWAP4 SWAP3 POP POP POP JUMP JUMPDEST PUSH32 0x4E487B7100000000000000000000000000000000000000000000000000000000 PUSH0 MSTORE PUSH1 0x11 PUSH1 0x4 MSTORE PUSH1 0x24 PUSH0 REVERT JUMPDEST PUSH0 PUSH2 0x106 DUP3 PUSH2 0x90 JUMP JUMPDEST SWAP2 POP PUSH2 0x111 DUP4 PUSH2 0x90 JUMP JUMPDEST SWAP3 POP DUP3 DUP3 ADD SWAP1 POP DUP1 DUP3 GT ISZERO PUSH2 0x129 JUMPI PUSH2 0x128 PUSH2 0xCF JUMP JUMPDEST JUMPDEST SWAP3 SWAP2 POP POP JUMP JUMPDEST PUSH0 PUSH2 0x139 DUP3 PUSH2 0x90 JUMP JUMPDEST SWAP2 POP PUSH2 0x144 DUP4 PUSH2 0x90 JUMP JUMPDEST SWAP3 POP DUP3 DUP3 MUL PUSH2 0x152 DUP2 PUSH2 0x90 JUMP JUMPDEST SWAP2 POP DUP3 DUP3 DIV DUP5 EQ DUP4 ISZERO OR PUSH2 0x169 JUMPI PUSH2 0x168 PUSH2 0xCF JUMP JUMPDEST JUMPDEST POP SWAP3 SWAP2 POP POP JUMP INVALID LOG2 PUSH5 0x6970667358 0x22 SLT KECCAK256 DUP15 PUSH3 0x224FE4 GT 0xB3 SDIV SWAP15 PUSH26 0x971BB65C0B937C46B62F463AB263909EF2B4BC13569364736F6C PUSH4 0x4300081E STOP CALLER "
				},
				"gasEstimates": {
					"creation": {
						"codeDepositCost": "84400",
						"executionCost": "5145",
						"totalCost": "89545"
					},
					"external": {
						"count()": "infinite",
						"get()": "infinite"
					}
				},
				"methodIdentifiers": {
					"count()": "06661abd",
					"get()": "6d4ce63c"
				}
			},
			"storageLayout": {
				"storage": [
					{
						"astId": 3,
						"contract": "demo.sol:Counter",
						"label": "counter",
						"offset": 0,
						"slot": "0",
						"type": "t_uint256"
					}
				],
				"types": {
					"t_uint256": {
						"encoding": "inplace",
						"label": "uint256",
						"numberOfBytes": "32"
					}
				}
			},
			"userdoc": {
				"kind": "user",
				"methods": {},
				"version": 1
			}
		}
	}
}