{
	"week_1/day2_VarDefault.sol": {
		"VarDefault": {
			"abi": [
				{
					"inputs": [],
					"stateMutability": "nonpayable",
					"type": "constructor"
				},
				{
					"inputs": [],
					"name": "DECIMALS",
					"outputs": [
						{
							"internalType": "uint8",
							"name": "",
							"type": "uint8"
						}
					],
					"stateMutability": "view",
					"type": "function"
				},
				{
					"inputs": [],
					"name": "TOTAL_SUPPLY",
					"outputs": [
						{
							"internalType": "uint256",
							"name": "",
							"type": "uint256"
						}
					],
					"stateMutability": "view",
					"type": "function"
				},
				{
					"inputs": [],
					"name": "a",
					"outputs": [
						{
							"internalType": "bool",
							"name": "",
							"type": "bool"
						}
					],
					"stateMutability": "view",
					"type": "function"
				},
				{
					"inputs": [],
					"name": "b",
					"outputs": [
						{
							"internalType": "int256",
							"name": "",
							"type": "int256"
						}
					],
					"stateMutability": "view",
					"type": "function"
				},
				{
					"inputs": [],
					"name": "c",
					"outputs": [
						{
							"internalType": "uint256",
							"name": "",
							"type": "uint256"
						}
					],
					"stateMutability": "view",
					"type": "function"
				},
				{
					"inputs": [],
					"name": "d",
					"outputs": [
						{
							"internalType": "address",
							"name": "",
							"type": "address"
						}
					],
					"stateMutability": "view",
					"type": "function"
				},
				{
					"inputs": [],
					"name": "e",
					"outputs": [
						{
							"internalType": "bytes32",
							"name": "",
							"type": "bytes32"
						}
					],
					"stateMutability": "view",
					"type": "function"
				},
				{
					"inputs": [],
					"name": "f",
					"outputs": [
						{
							"internalType": "string",
							"name": "",
							"type": "string"
						}
					],
					"stateMutability": "view",
					"type": "function"
				},
				{
					"inputs": [],
					"name": "g",
					"outputs": [
						{
							"internalType": "enum VarDefault.status",
							"name": "",
							"type": "uint8"
						}
					],
					"stateMutability": "view",
					"type": "function"
				},
				{
					"inputs": [],
					"name": "mycar",
					"outputs": [
						{
							"internalType": "string",
							"name": "name",
							"type": "string"
						},
						{
							"internalType": "string",
							"name": "carType",
							"type": "string"
						},
						{
							"internalType": "uint256",
							"name": "price",
							"type": "uint256"
						}
					],
					"stateMutability": "view",
					"type": "function"
				}
			],
			"devdoc": {
				"kind": "dev",
				"methods": {},
				"version": 1
			},
			"evm": {
				"assembly": "    /* \"week_1/day2_VarDefault.sol\":57:1365  contract VarDefault {... */\n  mstore(0x40, 0xc0)\n    /* \"week_1/day2_VarDefault.sol\":667:669  18 */\n  0x12\n    /* \"week_1/day2_VarDefault.sol\":633:669  uint8 public immutable DECIMALS = 18 */\n  0xff\n  and\n  0x80\n  swap1\n  0xff\n  and\n  dup2\n  mstore\n  pop\n    /* \"week_1/day2_VarDefault.sol\":738:813  constructor() {... */\n  callvalue\n  dup1\n  iszero\n  tag_1\n  jumpi\n  revert(0x00, 0x00)\ntag_1:\n  pop\n    /* \"week_1/day2_VarDefault.sol\":777:781  1000 */\n  0x03e8\n    /* \"week_1/day2_VarDefault.sol\":762:781  TOTAL_SUPPLY = 1000 */\n  0xa0\n  dup2\n  dup2\n  mstore\n  pop\n  pop\n    /* \"week_1/day2_VarDefault.sol\":57:1365  contract VarDefault {... */\n  mload(0x80)\n  mload(0xa0)\n  codecopy(0x00, dataOffset(sub_0), dataSize(sub_0))\n  0x00\n  assignImmutable(\"0xd2f8f61201b2b11a78d6e866abc9c3db2ae8631fa656bfe5cb53668255367afb\")\n  0x00\n  assignImmutable(\"0x52f1a9b320cab38e5da8a8f97989383aab0a49165fc91c737310e4f7e9821021\")\n  return(0x00, dataSize(sub_0))\nstop\n\nsub_0: assembly {\n        /* \"week_1/day2_VarDefault.sol\":57:1365  contract VarDefault {... */\n      mstore(0x40, 0x80)\n      callvalue\n      dup1\n      iszero\n      tag_1\n      jumpi\n      revert(0x00, 0x00)\n    tag_1:\n      pop\n      jumpi(tag_2, lt(calldatasize, 0x04))\n      shr(0xe0, calldataload(0x00))\n      dup1\n      0x902d55a5\n      gt\n      tag_13\n      jumpi\n      dup1\n      0x902d55a5\n      eq\n      tag_8\n      jumpi\n      dup1\n      0xa29c0bc1\n      eq\n      tag_9\n      jumpi\n      dup1\n      0xc3da42b8\n      eq\n      tag_10\n      jumpi\n      dup1\n      0xe2179b8e\n      eq\n      tag_11\n      jumpi\n      dup1\n      0xffae15ba\n      eq\n      tag_12\n      jumpi\n      jump(tag_2)\n    tag_13:\n      dup1\n      0x0dbe671f\n      eq\n      tag_3\n      jumpi\n      dup1\n      0x26121ff0\n      eq\n      tag_4\n      jumpi\n      dup1\n      0x2e0f2625\n      eq\n      tag_5\n      jumpi\n      dup1\n      0x4df7e3d0\n      eq\n      tag_6\n      jumpi\n      dup1\n      0x8a054ac2\n      eq\n      tag_7\n      jumpi\n    tag_2:\n      revert(0x00, 0x00)\n        /* \"week_1/day2_VarDefault.sol\":941:954  bool public a */\n    tag_3:\n      tag_14\n      tag_15\n      jump\t// in\n    tag_14:\n      mload(0x40)\n      tag_16\n      swap2\n      swap1\n      tag_17\n      jump\t// in\n    tag_16:\n      mload(0x40)\n      dup1\n      swap2\n      sub\n      swap1\n      return\n        /* \"week_1/day2_VarDefault.sol\":1122:1137  string public f */\n    tag_4:\n      tag_18\n      tag_19\n      jump\t// in\n    tag_18:\n      mload(0x40)\n      tag_20\n      swap2\n      swap1\n      tag_21\n      jump\t// in\n    tag_20:\n      mload(0x40)\n      dup1\n      swap2\n      sub\n      swap1\n      return\n        /* \"week_1/day2_VarDefault.sol\":633:669  uint8 public immutable DECIMALS = 18 */\n    tag_5:\n      tag_22\n      tag_23\n      jump\t// in\n    tag_22:\n      mload(0x40)\n      tag_24\n      swap2\n      swap1\n      tag_25\n      jump\t// in\n    tag_24:\n      mload(0x40)\n      dup1\n      swap2\n      sub\n      swap1\n      return\n        /* \"week_1/day2_VarDefault.sol\":969:984  int256 public b */\n    tag_6:\n      tag_26\n      tag_27\n      jump\t// in\n    tag_26:\n      mload(0x40)\n      tag_28\n      swap2\n      swap1\n      tag_29\n      jump\t// in\n    tag_28:\n      mload(0x40)\n      dup1\n      swap2\n      sub\n      swap1\n      return\n        /* \"week_1/day2_VarDefault.sol\":1022:1038  address public d */\n    tag_7:\n      tag_30\n      tag_31\n      jump\t// in\n    tag_30:\n      mload(0x40)\n      tag_32\n      swap2\n      swap1\n      tag_33\n      jump\t// in\n    tag_32:\n      mload(0x40)\n      dup1\n      swap2\n      sub\n      swap1\n      return\n        /* \"week_1/day2_VarDefault.sol\":694:731  uint256 public immutable TOTAL_SUPPLY */\n    tag_8:\n      tag_34\n      tag_35\n      jump\t// in\n    tag_34:\n      mload(0x40)\n      tag_36\n      swap2\n      swap1\n      tag_37\n      jump\t// in\n    tag_36:\n      mload(0x40)\n      dup1\n      swap2\n      sub\n      swap1\n      return\n        /* \"week_1/day2_VarDefault.sol\":1321:1337  car public mycar */\n    tag_9:\n      tag_38\n      tag_39\n      jump\t// in\n    tag_38:\n      mload(0x40)\n      tag_40\n      swap4\n      swap3\n      swap2\n      swap1\n      tag_41\n      jump\t// in\n    tag_40:\n      mload(0x40)\n      dup1\n      swap2\n      sub\n      swap1\n      return\n        /* \"week_1/day2_VarDefault.sol\":995:1011  uint256 public c */\n    tag_10:\n      tag_42\n      tag_43\n      jump\t// in\n    tag_42:\n      mload(0x40)\n      tag_44\n      swap2\n      swap1\n      tag_37\n      jump\t// in\n    tag_44:\n      mload(0x40)\n      dup1\n      swap2\n      sub\n      swap1\n      return\n        /* \"week_1/day2_VarDefault.sol\":1149:1164  status public g */\n    tag_11:\n      tag_45\n      tag_46\n      jump\t// in\n    tag_45:\n      mload(0x40)\n      tag_47\n      swap2\n      swap1\n      tag_48\n      jump\t// in\n    tag_47:\n      mload(0x40)\n      dup1\n      swap2\n      sub\n      swap1\n      return\n        /* \"week_1/day2_VarDefault.sol\":1072:1088  bytes32 public e */\n    tag_12:\n      tag_49\n      tag_50\n      jump\t// in\n    tag_49:\n      mload(0x40)\n      tag_51\n      swap2\n      swap1\n      tag_52\n      jump\t// in\n    tag_51:\n      mload(0x40)\n      dup1\n      swap2\n      sub\n      swap1\n      return\n        /* \"week_1/day2_VarDefault.sol\":941:954  bool public a */\n    tag_15:\n      0x00\n      0x00\n      swap1\n      sload\n      swap1\n      0x0100\n      exp\n      swap1\n      div\n      0xff\n      and\n      dup2\n      jump\t// out\n        /* \"week_1/day2_VarDefault.sol\":1122:1137  string public f */\n    tag_19:\n      0x05\n      dup1\n      sload\n      tag_53\n      swap1\n      tag_54\n      jump\t// in\n    tag_53:\n      dup1\n      0x1f\n      add\n      0x20\n      dup1\n      swap2\n      div\n      mul\n      0x20\n      add\n      mload(0x40)\n      swap1\n      dup2\n      add\n      0x40\n      mstore\n      dup1\n      swap3\n      swap2\n      swap1\n      dup2\n      dup2\n      mstore\n      0x20\n      add\n      dup3\n      dup1\n      sload\n      tag_55\n      swap1\n      tag_54\n      jump\t// in\n    tag_55:\n      dup1\n      iszero\n      tag_56\n      jumpi\n      dup1\n      0x1f\n      lt\n      tag_57\n      jumpi\n      0x0100\n      dup1\n      dup4\n      sload\n      div\n      mul\n      dup4\n      mstore\n      swap2\n      0x20\n      add\n      swap2\n      jump(tag_56)\n    tag_57:\n      dup3\n      add\n      swap2\n      swap1\n      0x00\n      mstore\n      keccak256(0x00, 0x20)\n      swap1\n    tag_58:\n      dup2\n      sload\n      dup2\n      mstore\n      swap1\n      0x01\n      add\n      swap1\n      0x20\n      add\n      dup1\n      dup4\n      gt\n      tag_58\n      jumpi\n      dup3\n      swap1\n      sub\n      0x1f\n      and\n      dup3\n      add\n      swap2\n    tag_56:\n      pop\n      pop\n      pop\n      pop\n      pop\n      dup2\n      jump\t// out\n        /* \"week_1/day2_VarDefault.sol\":633:669  uint8 public immutable DECIMALS = 18 */\n    tag_23:\n      immutable(\"0x52f1a9b320cab38e5da8a8f97989383aab0a49165fc91c737310e4f7e9821021\")\n      dup2\n      jump\t// out\n        /* \"week_1/day2_VarDefault.sol\":969:984  int256 public b */\n    tag_27:\n      sload(0x01)\n      dup2\n      jump\t// out\n        /* \"week_1/day2_VarDefault.sol\":1022:1038  address public d */\n    tag_31:\n      0x03\n      0x00\n      swap1\n      sload\n      swap1\n      0x0100\n      exp\n      swap1\n      div\n      0xffffffffffffffffffffffffffffffffffffffff\n      and\n      dup2\n      jump\t// out\n        /* \"week_1/day2_VarDefault.sol\":694:731  uint256 public immutable TOTAL_SUPPLY */\n    tag_35:\n      immutable(\"0xd2f8f61201b2b11a78d6e866abc9c3db2ae8631fa656bfe5cb53668255367afb\")\n      dup2\n      jump\t// out\n        /* \"week_1/day2_VarDefault.sol\":1321:1337  car public mycar */\n    tag_39:\n      0x07\n      dup1\n      0x00\n      add\n      dup1\n      sload\n      tag_59\n      swap1\n      tag_54\n      jump\t// in\n    tag_59:\n      dup1\n      0x1f\n      add\n      0x20\n      dup1\n      swap2\n      div\n      mul\n      0x20\n      add\n      mload(0x40)\n      swap1\n      dup2\n      add\n      0x40\n      mstore\n      dup1\n      swap3\n      swap2\n      swap1\n      dup2\n      dup2\n      mstore\n      0x20\n      add\n      dup3\n      dup1\n      sload\n      tag_60\n      swap1\n      tag_54\n      jump\t// in\n    tag_60:\n      dup1\n      iszero\n      tag_61\n      jumpi\n      dup1\n      0x1f\n      lt\n      tag_62\n      jumpi\n      0x0100\n      dup1\n      dup4\n      sload\n      div\n      mul\n      dup4\n      mstore\n      swap2\n      0x20\n      add\n      swap2\n      jump(tag_61)\n    tag_62:\n      dup3\n      add\n      swap2\n      swap1\n      0x00\n      mstore\n      keccak256(0x00, 0x20)\n      swap1\n    tag_63:\n      dup2\n      sload\n      dup2\n      mstore\n      swap1\n      0x01\n      add\n      swap1\n      0x20\n      add\n      dup1\n      dup4\n      gt\n      tag_63\n      jumpi\n      dup3\n      swap1\n      sub\n      0x1f\n      and\n      dup3\n      add\n      swap2\n    tag_61:\n      pop\n      pop\n      pop\n      pop\n      pop\n      swap1\n      dup1\n      0x01\n      add\n      dup1\n      sload\n      tag_64\n      swap1\n      tag_54\n      jump\t// in\n    tag_64:\n      dup1\n      0x1f\n      add\n      0x20\n      dup1\n      swap2\n      div\n      mul\n      0x20\n      add\n      mload(0x40)\n      swap1\n      dup2\n      add\n      0x40\n      mstore\n      dup1\n      swap3\n      swap2\n      swap1\n      dup2\n      dup2\n      mstore\n      0x20\n      add\n      dup3\n      dup1\n      sload\n      tag_65\n      swap1\n      tag_54\n      jump\t// in\n    tag_65:\n      dup1\n      iszero\n      tag_66\n      jumpi\n      dup1\n      0x1f\n      lt\n      tag_67\n      jumpi\n      0x0100\n      dup1\n      dup4\n      sload\n      div\n      mul\n      dup4\n      mstore\n      swap2\n      0x20\n      add\n      swap2\n      jump(tag_66)\n    tag_67:\n      dup3\n      add\n      swap2\n      swap1\n      0x00\n      mstore\n      keccak256(0x00, 0x20)\n      swap1\n    tag_68:\n      dup2\n      sload\n      dup2\n      mstore\n      swap1\n      0x01\n      add\n      swap1\n      0x20\n      add\n      dup1\n      dup4\n      gt\n      tag_68\n      jumpi\n      dup3\n      swap1\n      sub\n      0x1f\n      and\n      dup3\n      add\n      swap2\n    tag_66:\n      pop\n      pop\n      pop\n      pop\n      pop\n      swap1\n      dup1\n      0x02\n      add\n      sload\n      swap1\n      pop\n      dup4\n      jump\t// out\n        /* \"week_1/day2_VarDefault.sol\":995:1011  uint256 public c */\n    tag_43:\n      sload(0x02)\n      dup2\n      jump\t// out\n        /* \"week_1/day2_VarDefault.sol\":1149:1164  status public g */\n    tag_46:\n      0x06\n      0x00\n      swap1\n      sload\n      swap1\n      0x0100\n      exp\n      swap1\n      div\n      0xff\n      and\n      dup2\n      jump\t// out\n        /* \"week_1/day2_VarDefault.sol\":1072:1088  bytes32 public e */\n    tag_50:\n      sload(0x04)\n      dup2\n      jump\t// out\n        /* \"#utility.yul\":7:97   */\n    tag_69:\n        /* \"#utility.yul\":41:48   */\n      0x00\n        /* \"#utility.yul\":84:89   */\n      dup2\n        /* \"#utility.yul\":77:90   */\n      iszero\n        /* \"#utility.yul\":70:91   */\n      iszero\n        /* \"#utility.yul\":59:91   */\n      swap1\n      pop\n        /* \"#utility.yul\":7:97   */\n      swap2\n      swap1\n      pop\n      jump\t// out\n        /* \"#utility.yul\":103:212   */\n    tag_70:\n        /* \"#utility.yul\":184:205   */\n      tag_96\n        /* \"#utility.yul\":199:204   */\n      dup2\n        /* \"#utility.yul\":184:205   */\n      tag_69\n      jump\t// in\n    tag_96:\n        /* \"#utility.yul\":179:182   */\n      dup3\n        /* \"#utility.yul\":172:206   */\n      mstore\n        /* \"#utility.yul\":103:212   */\n      pop\n      pop\n      jump\t// out\n        /* \"#utility.yul\":218:428   */\n    tag_17:\n        /* \"#utility.yul\":305:309   */\n      0x00\n        /* \"#utility.yul\":343:345   */\n      0x20\n        /* \"#utility.yul\":332:341   */\n      dup3\n        /* \"#utility.yul\":328:346   */\n      add\n        /* \"#utility.yul\":320:346   */\n      swap1\n      pop\n        /* \"#utility.yul\":356:421   */\n      tag_98\n        /* \"#utility.yul\":418:419   */\n      0x00\n        /* \"#utility.yul\":407:416   */\n      dup4\n        /* \"#utility.yul\":403:420   */\n      add\n        /* \"#utility.yul\":394:400   */\n      dup5\n        /* \"#utility.yul\":356:421   */\n      tag_70\n      jump\t// in\n    tag_98:\n        /* \"#utility.yul\":218:428   */\n      swap3\n      swap2\n      pop\n      pop\n      jump\t// out\n        /* \"#utility.yul\":434:533   */\n    tag_71:\n        /* \"#utility.yul\":486:492   */\n      0x00\n        /* \"#utility.yul\":520:525   */\n      dup2\n        /* \"#utility.yul\":514:526   */\n      mload\n        /* \"#utility.yul\":504:526   */\n      swap1\n      pop\n        /* \"#utility.yul\":434:533   */\n      swap2\n      swap1\n      pop\n      jump\t// out\n        /* \"#utility.yul\":539:708   */\n    tag_72:\n        /* \"#utility.yul\":623:634   */\n      0x00\n        /* \"#utility.yul\":657:663   */\n      dup3\n        /* \"#utility.yul\":652:655   */\n      dup3\n        /* \"#utility.yul\":645:664   */\n      mstore\n        /* \"#utility.yul\":697:701   */\n      0x20\n        /* \"#utility.yul\":692:695   */\n      dup3\n        /* \"#utility.yul\":688:702   */\n      add\n        /* \"#utility.yul\":673:702   */\n      swap1\n      pop\n        /* \"#utility.yul\":539:708   */\n      swap3\n      swap2\n      pop\n      pop\n      jump\t// out\n        /* \"#utility.yul\":714:853   */\n    tag_73:\n        /* \"#utility.yul\":803:809   */\n      dup3\n        /* \"#utility.yul\":798:801   */\n      dup2\n        /* \"#utility.yul\":793:796   */\n      dup4\n        /* \"#utility.yul\":787:810   */\n      mcopy\n        /* \"#utility.yul\":844:845   */\n      0x00\n        /* \"#utility.yul\":835:841   */\n      dup4\n        /* \"#utility.yul\":830:833   */\n      dup4\n        /* \"#utility.yul\":826:842   */\n      add\n        /* \"#utility.yul\":819:846   */\n      mstore\n        /* \"#utility.yul\":714:853   */\n      pop\n      pop\n      pop\n      jump\t// out\n        /* \"#utility.yul\":859:961   */\n    tag_74:\n        /* \"#utility.yul\":900:906   */\n      0x00\n        /* \"#utility.yul\":951:953   */\n      0x1f\n        /* \"#utility.yul\":947:954   */\n      not\n        /* \"#utility.yul\":942:944   */\n      0x1f\n        /* \"#utility.yul\":935:940   */\n      dup4\n        /* \"#utility.yul\":931:945   */\n      add\n        /* \"#utility.yul\":927:955   */\n      and\n        /* \"#utility.yul\":917:955   */\n      swap1\n      pop\n        /* \"#utility.yul\":859:961   */\n      swap2\n      swap1\n      pop\n      jump\t// out\n        /* \"#utility.yul\":967:1344   */\n    tag_75:\n        /* \"#utility.yul\":1055:1058   */\n      0x00\n        /* \"#utility.yul\":1083:1122   */\n      tag_104\n        /* \"#utility.yul\":1116:1121   */\n      dup3\n        /* \"#utility.yul\":1083:1122   */\n      tag_71\n      jump\t// in\n    tag_104:\n        /* \"#utility.yul\":1138:1209   */\n      tag_105\n        /* \"#utility.yul\":1202:1208   */\n      dup2\n        /* \"#utility.yul\":1197:1200   */\n      dup6\n        /* \"#utility.yul\":1138:1209   */\n      tag_72\n      jump\t// in\n    tag_105:\n        /* \"#utility.yul\":1131:1209   */\n      swap4\n      pop\n        /* \"#utility.yul\":1218:1283   */\n      tag_106\n        /* \"#utility.yul\":1276:1282   */\n      dup2\n        /* \"#utility.yul\":1271:1274   */\n      dup6\n        /* \"#utility.yul\":1264:1268   */\n      0x20\n        /* \"#utility.yul\":1257:1262   */\n      dup7\n        /* \"#utility.yul\":1253:1269   */\n      add\n        /* \"#utility.yul\":1218:1283   */\n      tag_73\n      jump\t// in\n    tag_106:\n        /* \"#utility.yul\":1308:1337   */\n      tag_107\n        /* \"#utility.yul\":1330:1336   */\n      dup2\n        /* \"#utility.yul\":1308:1337   */\n      tag_74\n      jump\t// in\n    tag_107:\n        /* \"#utility.yul\":1303:1306   */\n      dup5\n        /* \"#utility.yul\":1299:1338   */\n      add\n        /* \"#utility.yul\":1292:1338   */\n      swap2\n      pop\n        /* \"#utility.yul\":1059:1344   */\n      pop\n        /* \"#utility.yul\":967:1344   */\n      swap3\n      swap2\n      pop\n      pop\n      jump\t// out\n        /* \"#utility.yul\":1350:1663   */\n    tag_21:\n        /* \"#utility.yul\":1463:1467   */\n      0x00\n        /* \"#utility.yul\":1501:1503   */\n      0x20\n        /* \"#utility.yul\":1490:1499   */\n      dup3\n        /* \"#utility.yul\":1486:1504   */\n      add\n        /* \"#utility.yul\":1478:1504   */\n      swap1\n      pop\n        /* \"#utility.yul\":1550:1559   */\n      dup2\n        /* \"#utility.yul\":1544:1548   */\n      dup2\n        /* \"#utility.yul\":1540:1560   */\n      sub\n        /* \"#utility.yul\":1536:1537   */\n      0x00\n        /* \"#utility.yul\":1525:1534   */\n      dup4\n        /* \"#utility.yul\":1521:1538   */\n      add\n        /* \"#utility.yul\":1514:1561   */\n      mstore\n        /* \"#utility.yul\":1578:1656   */\n      tag_109\n        /* \"#utility.yul\":1651:1655   */\n      dup2\n        /* \"#utility.yul\":1642:1648   */\n      dup5\n        /* \"#utility.yul\":1578:1656   */\n      tag_75\n      jump\t// in\n    tag_109:\n        /* \"#utility.yul\":1570:1656   */\n      swap1\n      pop\n        /* \"#utility.yul\":1350:1663   */\n      swap3\n      swap2\n      pop\n      pop\n      jump\t// out\n        /* \"#utility.yul\":1669:1755   */\n    tag_76:\n        /* \"#utility.yul\":1704:1711   */\n      0x00\n        /* \"#utility.yul\":1744:1748   */\n      0xff\n        /* \"#utility.yul\":1737:1742   */\n      dup3\n        /* \"#utility.yul\":1733:1749   */\n      and\n        /* \"#utility.yul\":1722:1749   */\n      swap1\n      pop\n        /* \"#utility.yul\":1669:1755   */\n      swap2\n      swap1\n      pop\n      jump\t// out\n        /* \"#utility.yul\":1761:1873   */\n    tag_77:\n        /* \"#utility.yul\":1844:1866   */\n      tag_112\n        /* \"#utility.yul\":1860:1865   */\n      dup2\n        /* \"#utility.yul\":1844:1866   */\n      tag_76\n      jump\t// in\n    tag_112:\n        /* \"#utility.yul\":1839:1842   */\n      dup3\n        /* \"#utility.yul\":1832:1867   */\n      mstore\n        /* \"#utility.yul\":1761:1873   */\n      pop\n      pop\n      jump\t// out\n        /* \"#utility.yul\":1879:2093   */\n    tag_25:\n        /* \"#utility.yul\":1968:1972   */\n      0x00\n        /* \"#utility.yul\":2006:2008   */\n      0x20\n        /* \"#utility.yul\":1995:2004   */\n      dup3\n        /* \"#utility.yul\":1991:2009   */\n      add\n        /* \"#utility.yul\":1983:2009   */\n      swap1\n      pop\n        /* \"#utility.yul\":2019:2086   */\n      tag_114\n        /* \"#utility.yul\":2083:2084   */\n      0x00\n        /* \"#utility.yul\":2072:2081   */\n      dup4\n        /* \"#utility.yul\":2068:2085   */\n      add\n        /* \"#utility.yul\":2059:2065   */\n      dup5\n        /* \"#utility.yul\":2019:2086   */\n      tag_77\n      jump\t// in\n    tag_114:\n        /* \"#utility.yul\":1879:2093   */\n      swap3\n      swap2\n      pop\n      pop\n      jump\t// out\n        /* \"#utility.yul\":2099:2175   */\n    tag_78:\n        /* \"#utility.yul\":2135:2142   */\n      0x00\n        /* \"#utility.yul\":2164:2169   */\n      dup2\n        /* \"#utility.yul\":2153:2169   */\n      swap1\n      pop\n        /* \"#utility.yul\":2099:2175   */\n      swap2\n      swap1\n      pop\n      jump\t// out\n        /* \"#utility.yul\":2181:2296   */\n    tag_79:\n        /* \"#utility.yul\":2266:2289   */\n      tag_117\n        /* \"#utility.yul\":2283:2288   */\n      dup2\n        /* \"#utility.yul\":2266:2289   */\n      tag_78\n      jump\t// in\n    tag_117:\n        /* \"#utility.yul\":2261:2264   */\n      dup3\n        /* \"#utility.yul\":2254:2290   */\n      mstore\n        /* \"#utility.yul\":2181:2296   */\n      pop\n      pop\n      jump\t// out\n        /* \"#utility.yul\":2302:2520   */\n    tag_29:\n        /* \"#utility.yul\":2393:2397   */\n      0x00\n        /* \"#utility.yul\":2431:2433   */\n      0x20\n        /* \"#utility.yul\":2420:2429   */\n      dup3\n        /* \"#utility.yul\":2416:2434   */\n      add\n        /* \"#utility.yul\":2408:2434   */\n      swap1\n      pop\n        /* \"#utility.yul\":2444:2513   */\n      tag_119\n        /* \"#utility.yul\":2510:2511   */\n      0x00\n        /* \"#utility.yul\":2499:2508   */\n      dup4\n        /* \"#utility.yul\":2495:2512   */\n      add\n        /* \"#utility.yul\":2486:2492   */\n      dup5\n        /* \"#utility.yul\":2444:2513   */\n      tag_79\n      jump\t// in\n    tag_119:\n        /* \"#utility.yul\":2302:2520   */\n      swap3\n      swap2\n      pop\n      pop\n      jump\t// out\n        /* \"#utility.yul\":2526:2652   */\n    tag_80:\n        /* \"#utility.yul\":2563:2570   */\n      0x00\n        /* \"#utility.yul\":2603:2645   */\n      0xffffffffffffffffffffffffffffffffffffffff\n        /* \"#utility.yul\":2596:2601   */\n      dup3\n        /* \"#utility.yul\":2592:2646   */\n      and\n        /* \"#utility.yul\":2581:2646   */\n      swap1\n      pop\n        /* \"#utility.yul\":2526:2652   */\n      swap2\n      swap1\n      pop\n      jump\t// out\n        /* \"#utility.yul\":2658:2754   */\n    tag_81:\n        /* \"#utility.yul\":2695:2702   */\n      0x00\n        /* \"#utility.yul\":2724:2748   */\n      tag_122\n        /* \"#utility.yul\":2742:2747   */\n      dup3\n        /* \"#utility.yul\":2724:2748   */\n      tag_80\n      jump\t// in\n    tag_122:\n        /* \"#utility.yul\":2713:2748   */\n      swap1\n      pop\n        /* \"#utility.yul\":2658:2754   */\n      swap2\n      swap1\n      pop\n      jump\t// out\n        /* \"#utility.yul\":2760:2878   */\n    tag_82:\n        /* \"#utility.yul\":2847:2871   */\n      tag_124\n        /* \"#utility.yul\":2865:2870   */\n      dup2\n        /* \"#utility.yul\":2847:2871   */\n      tag_81\n      jump\t// in\n    tag_124:\n        /* \"#utility.yul\":2842:2845   */\n      dup3\n        /* \"#utility.yul\":2835:2872   */\n      mstore\n        /* \"#utility.yul\":2760:2878   */\n      pop\n      pop\n      jump\t// out\n        /* \"#utility.yul\":2884:3106   */\n    tag_33:\n        /* \"#utility.yul\":2977:2981   */\n      0x00\n        /* \"#utility.yul\":3015:3017   */\n      0x20\n        /* \"#utility.yul\":3004:3013   */\n      dup3\n        /* \"#utility.yul\":3000:3018   */\n      add\n        /* \"#utility.yul\":2992:3018   */\n      swap1\n      pop\n        /* \"#utility.yul\":3028:3099   */\n      tag_126\n        /* \"#utility.yul\":3096:3097   */\n      0x00\n        /* \"#utility.yul\":3085:3094   */\n      dup4\n        /* \"#utility.yul\":3081:3098   */\n      add\n        /* \"#utility.yul\":3072:3078   */\n      dup5\n        /* \"#utility.yul\":3028:3099   */\n      tag_82\n      jump\t// in\n    tag_126:\n        /* \"#utility.yul\":2884:3106   */\n      swap3\n      swap2\n      pop\n      pop\n      jump\t// out\n        /* \"#utility.yul\":3112:3189   */\n    tag_83:\n        /* \"#utility.yul\":3149:3156   */\n      0x00\n        /* \"#utility.yul\":3178:3183   */\n      dup2\n        /* \"#utility.yul\":3167:3183   */\n      swap1\n      pop\n        /* \"#utility.yul\":3112:3189   */\n      swap2\n      swap1\n      pop\n      jump\t// out\n        /* \"#utility.yul\":3195:3313   */\n    tag_84:\n        /* \"#utility.yul\":3282:3306   */\n      tag_129\n        /* \"#utility.yul\":3300:3305   */\n      dup2\n        /* \"#utility.yul\":3282:3306   */\n      tag_83\n      jump\t// in\n    tag_129:\n        /* \"#utility.yul\":3277:3280   */\n      dup3\n        /* \"#utility.yul\":3270:3307   */\n      mstore\n        /* \"#utility.yul\":3195:3313   */\n      pop\n      pop\n      jump\t// out\n        /* \"#utility.yul\":3319:3541   */\n    tag_37:\n        /* \"#utility.yul\":3412:3416   */\n      0x00\n        /* \"#utility.yul\":3450:3452   */\n      0x20\n        /* \"#utility.yul\":3439:3448   */\n      dup3\n        /* \"#utility.yul\":3435:3453   */\n      add\n        /* \"#utility.yul\":3427:3453   */\n      swap1\n      pop\n        /* \"#utility.yul\":3463:3534   */\n      tag_131\n        /* \"#utility.yul\":3531:3532   */\n      0x00\n        /* \"#utility.yul\":3520:3529   */\n      dup4\n        /* \"#utility.yul\":3516:3533   */\n      add\n        /* \"#utility.yul\":3507:3513   */\n      dup5\n        /* \"#utility.yul\":3463:3534   */\n      tag_84\n      jump\t// in\n    tag_131:\n        /* \"#utility.yul\":3319:3541   */\n      swap3\n      swap2\n      pop\n      pop\n      jump\t// out\n        /* \"#utility.yul\":3547:4171   */\n    tag_41:\n        /* \"#utility.yul\":3736:3740   */\n      0x00\n        /* \"#utility.yul\":3774:3776   */\n      0x60\n        /* \"#utility.yul\":3763:3772   */\n      dup3\n        /* \"#utility.yul\":3759:3777   */\n      add\n        /* \"#utility.yul\":3751:3777   */\n      swap1\n      pop\n        /* \"#utility.yul\":3823:3832   */\n      dup2\n        /* \"#utility.yul\":3817:3821   */\n      dup2\n        /* \"#utility.yul\":3813:3833   */\n      sub\n        /* \"#utility.yul\":3809:3810   */\n      0x00\n        /* \"#utility.yul\":3798:3807   */\n      dup4\n        /* \"#utility.yul\":3794:3811   */\n      add\n        /* \"#utility.yul\":3787:3834   */\n      mstore\n        /* \"#utility.yul\":3851:3929   */\n      tag_133\n        /* \"#utility.yul\":3924:3928   */\n      dup2\n        /* \"#utility.yul\":3915:3921   */\n      dup7\n        /* \"#utility.yul\":3851:3929   */\n      tag_75\n      jump\t// in\n    tag_133:\n        /* \"#utility.yul\":3843:3929   */\n      swap1\n      pop\n        /* \"#utility.yul\":3976:3985   */\n      dup2\n        /* \"#utility.yul\":3970:3974   */\n      dup2\n        /* \"#utility.yul\":3966:3986   */\n      sub\n        /* \"#utility.yul\":3961:3963   */\n      0x20\n        /* \"#utility.yul\":3950:3959   */\n      dup4\n        /* \"#utility.yul\":3946:3964   */\n      add\n        /* \"#utility.yul\":3939:3987   */\n      mstore\n        /* \"#utility.yul\":4004:4082   */\n      tag_134\n        /* \"#utility.yul\":4077:4081   */\n      dup2\n        /* \"#utility.yul\":4068:4074   */\n      dup6\n        /* \"#utility.yul\":4004:4082   */\n      tag_75\n      jump\t// in\n    tag_134:\n        /* \"#utility.yul\":3996:4082   */\n      swap1\n      pop\n        /* \"#utility.yul\":4092:4164   */\n      tag_135\n        /* \"#utility.yul\":4160:4162   */\n      0x40\n        /* \"#utility.yul\":4149:4158   */\n      dup4\n        /* \"#utility.yul\":4145:4163   */\n      add\n        /* \"#utility.yul\":4136:4142   */\n      dup5\n        /* \"#utility.yul\":4092:4164   */\n      tag_84\n      jump\t// in\n    tag_135:\n        /* \"#utility.yul\":3547:4171   */\n      swap5\n      swap4\n      pop\n      pop\n      pop\n      pop\n      jump\t// out\n        /* \"#utility.yul\":4177:4357   */\n    tag_85:\n        /* \"#utility.yul\":4225:4302   */\n      0x4e487b7100000000000000000000000000000000000000000000000000000000\n        /* \"#utility.yul\":4222:4223   */\n      0x00\n        /* \"#utility.yul\":4215:4303   */\n      mstore\n        /* \"#utility.yul\":4322:4326   */\n      0x21\n        /* \"#utility.yul\":4319:4320   */\n      0x04\n        /* \"#utility.yul\":4312:4327   */\n      mstore\n        /* \"#utility.yul\":4346:4350   */\n      0x24\n        /* \"#utility.yul\":4343:4344   */\n      0x00\n        /* \"#utility.yul\":4336:4351   */\n      revert\n        /* \"#utility.yul\":4363:4477   */\n    tag_86:\n        /* \"#utility.yul\":4445:4446   */\n      0x02\n        /* \"#utility.yul\":4438:4443   */\n      dup2\n        /* \"#utility.yul\":4435:4447   */\n      lt\n        /* \"#utility.yul\":4425:4471   */\n      tag_138\n      jumpi\n        /* \"#utility.yul\":4451:4469   */\n      tag_139\n      tag_85\n      jump\t// in\n    tag_139:\n        /* \"#utility.yul\":4425:4471   */\n    tag_138:\n        /* \"#utility.yul\":4363:4477   */\n      pop\n      jump\t// out\n        /* \"#utility.yul\":4483:4612   */\n    tag_87:\n        /* \"#utility.yul\":4529:4536   */\n      0x00\n        /* \"#utility.yul\":4558:4563   */\n      dup2\n        /* \"#utility.yul\":4547:4563   */\n      swap1\n      pop\n        /* \"#utility.yul\":4564:4606   */\n      tag_141\n        /* \"#utility.yul\":4600:4605   */\n      dup3\n        /* \"#utility.yul\":4564:4606   */\n      tag_86\n      jump\t// in\n    tag_141:\n        /* \"#utility.yul\":4483:4612   */\n      swap2\n      swap1\n      pop\n      jump\t// out\n        /* \"#utility.yul\":4618:4747   */\n    tag_88:\n        /* \"#utility.yul\":4675:4684   */\n      0x00\n        /* \"#utility.yul\":4708:4741   */\n      tag_143\n        /* \"#utility.yul\":4735:4740   */\n      dup3\n        /* \"#utility.yul\":4708:4741   */\n      tag_87\n      jump\t// in\n    tag_143:\n        /* \"#utility.yul\":4695:4741   */\n      swap1\n      pop\n        /* \"#utility.yul\":4618:4747   */\n      swap2\n      swap1\n      pop\n      jump\t// out\n        /* \"#utility.yul\":4753:4898   */\n    tag_89:\n        /* \"#utility.yul\":4847:4891   */\n      tag_145\n        /* \"#utility.yul\":4885:4890   */\n      dup2\n        /* \"#utility.yul\":4847:4891   */\n      tag_88\n      jump\t// in\n    tag_145:\n        /* \"#utility.yul\":4842:4845   */\n      dup3\n        /* \"#utility.yul\":4835:4892   */\n      mstore\n        /* \"#utility.yul\":4753:4898   */\n      pop\n      pop\n      jump\t// out\n        /* \"#utility.yul\":4904:5140   */\n    tag_48:\n        /* \"#utility.yul\":5004:5008   */\n      0x00\n        /* \"#utility.yul\":5042:5044   */\n      0x20\n        /* \"#utility.yul\":5031:5040   */\n      dup3\n        /* \"#utility.yul\":5027:5045   */\n      add\n        /* \"#utility.yul\":5019:5045   */\n      swap1\n      pop\n        /* \"#utility.yul\":5055:5133   */\n      tag_147\n        /* \"#utility.yul\":5130:5131   */\n      0x00\n        /* \"#utility.yul\":5119:5128   */\n      dup4\n        /* \"#utility.yul\":5115:5132   */\n      add\n        /* \"#utility.yul\":5106:5112   */\n      dup5\n        /* \"#utility.yul\":5055:5133   */\n      tag_89\n      jump\t// in\n    tag_147:\n        /* \"#utility.yul\":4904:5140   */\n      swap3\n      swap2\n      pop\n      pop\n      jump\t// out\n        /* \"#utility.yul\":5146:5223   */\n    tag_90:\n        /* \"#utility.yul\":5183:5190   */\n      0x00\n        /* \"#utility.yul\":5212:5217   */\n      dup2\n        /* \"#utility.yul\":5201:5217   */\n      swap1\n      pop\n        /* \"#utility.yul\":5146:5223   */\n      swap2\n      swap1\n      pop\n      jump\t// out\n        /* \"#utility.yul\":5229:5347   */\n    tag_91:\n        /* \"#utility.yul\":5316:5340   */\n      tag_150\n        /* \"#utility.yul\":5334:5339   */\n      dup2\n        /* \"#utility.yul\":5316:5340   */\n      tag_90\n      jump\t// in\n    tag_150:\n        /* \"#utility.yul\":5311:5314   */\n      dup3\n        /* \"#utility.yul\":5304:5341   */\n      mstore\n        /* \"#utility.yul\":5229:5347   */\n      pop\n      pop\n      jump\t// out\n        /* \"#utility.yul\":5353:5575   */\n    tag_52:\n        /* \"#utility.yul\":5446:5450   */\n      0x00\n        /* \"#utility.yul\":5484:5486   */\n      0x20\n        /* \"#utility.yul\":5473:5482   */\n      dup3\n        /* \"#utility.yul\":5469:5487   */\n      add\n        /* \"#utility.yul\":5461:5487   */\n      swap1\n      pop\n        /* \"#utility.yul\":5497:5568   */\n      tag_152\n        /* \"#utility.yul\":5565:5566   */\n      0x00\n        /* \"#utility.yul\":5554:5563   */\n      dup4\n        /* \"#utility.yul\":5550:5567   */\n      add\n        /* \"#utility.yul\":5541:5547   */\n      dup5\n        /* \"#utility.yul\":5497:5568   */\n      tag_91\n      jump\t// in\n    tag_152:\n        /* \"#utility.yul\":5353:5575   */\n      swap3\n      swap2\n      pop\n      pop\n      jump\t// out\n        /* \"#utility.yul\":5581:5761   */\n    tag_92:\n        /* \"#utility.yul\":5629:5706   */\n      0x4e487b7100000000000000000000000000000000000000000000000000000000\n        /* \"#utility.yul\":5626:5627   */\n      0x00\n        /* \"#utility.yul\":5619:5707   */\n      mstore\n        /* \"#utility.yul\":5726:5730   */\n      0x22\n        /* \"#utility.yul\":5723:5724   */\n      0x04\n        /* \"#utility.yul\":5716:5731   */\n      mstore\n        /* \"#utility.yul\":5750:5754   */\n      0x24\n        /* \"#utility.yul\":5747:5748   */\n      0x00\n        /* \"#utility.yul\":5740:5755   */\n      revert\n        /* \"#utility.yul\":5767:6087   */\n    tag_54:\n        /* \"#utility.yul\":5811:5817   */\n      0x00\n        /* \"#utility.yul\":5848:5849   */\n      0x02\n        /* \"#utility.yul\":5842:5846   */\n      dup3\n        /* \"#utility.yul\":5838:5850   */\n      div\n        /* \"#utility.yul\":5828:5850   */\n      swap1\n      pop\n        /* \"#utility.yul\":5895:5896   */\n      0x01\n        /* \"#utility.yul\":5889:5893   */\n      dup3\n        /* \"#utility.yul\":5885:5897   */\n      and\n        /* \"#utility.yul\":5916:5934   */\n      dup1\n        /* \"#utility.yul\":5906:5987   */\n      tag_155\n      jumpi\n        /* \"#utility.yul\":5972:5976   */\n      0x7f\n        /* \"#utility.yul\":5964:5970   */\n      dup3\n        /* \"#utility.yul\":5960:5977   */\n      and\n        /* \"#utility.yul\":5950:5977   */\n      swap2\n      pop\n        /* \"#utility.yul\":5906:5987   */\n    tag_155:\n        /* \"#utility.yul\":6034:6036   */\n      0x20\n        /* \"#utility.yul\":6026:6032   */\n      dup3\n        /* \"#utility.yul\":6023:6037   */\n      lt\n        /* \"#utility.yul\":6003:6021   */\n      dup2\n        /* \"#utility.yul\":6000:6038   */\n      sub\n        /* \"#utility.yul\":5997:6081   */\n      tag_156\n      jumpi\n        /* \"#utility.yul\":6053:6071   */\n      tag_157\n      tag_92\n      jump\t// in\n    tag_157:\n        /* \"#utility.yul\":5997:6081   */\n    tag_156:\n        /* \"#utility.yul\":5818:6087   */\n      pop\n        /* \"#utility.yul\":5767:6087   */\n      swap2\n      swap1\n      pop\n      jump\t// out\n\n    auxdata: 0xa26469706673582212207c1cb088866ac885399a3dd0ecf0c23a594e4df914aac8d662993d23d44a732064736f6c634300081e0033\n}\n",
				"bytecode": {
					"linkReferences": {},
					"object": "60c0604052601260ff1660809060ff16815250348015601c575f5ffd5b506103e860a0818152505060805160a0516107636100485f395f6102bc01525f61026d01526107635ff3fe608060405234801561000f575f5ffd5b506004361061009c575f3560e01c8063902d55a511610064578063902d55a514610136578063a29c0bc114610154578063c3da42b814610174578063e2179b8e14610192578063ffae15ba146101b05761009c565b80630dbe671f146100a057806326121ff0146100be5780632e0f2625146100dc5780634df7e3d0146100fa5780638a054ac214610118575b5f5ffd5b6100a86101ce565b6040516100b59190610439565b60405180910390f35b6100c66101df565b6040516100d391906104c2565b60405180910390f35b6100e461026b565b6040516100f191906104fd565b60405180910390f35b61010261028f565b60405161010f919061052e565b60405180910390f35b610120610295565b60405161012d9190610586565b60405180910390f35b61013e6102ba565b60405161014b91906105b7565b60405180910390f35b61015c6102de565b60405161016b939291906105d0565b60405180910390f35b61017c610401565b60405161018991906105b7565b60405180910390f35b61019a610407565b6040516101a79190610686565b60405180910390f35b6101b8610419565b6040516101c591906106b7565b60405180910390f35b5f5f9054906101000a900460ff1681565b600580546101ec906106fd565b80601f0160208091040260200160405190810160405280929190818152602001828054610218906106fd565b80156102635780601f1061023a57610100808354040283529160200191610263565b820191905f5260205f20905b81548152906001019060200180831161024657829003601f168201915b505050505081565b7f000000000000000000000000000000000000000000000000000000000000000081565b60015481565b60035f9054906101000a900473ffffffffffffffffffffffffffffffffffffffff1681565b7f000000000000000000000000000000000000000000000000000000000000000081565b6007805f0180546102ee906106fd565b80601f016020809104026020016040519081016040528092919081815260200182805461031a906106fd565b80156103655780601f1061033c57610100808354040283529160200191610365565b820191905f5260205f20905b81548152906001019060200180831161034857829003601f168201915b50505050509080600101805461037a906106fd565b80601f01602080910402602001604051908101604052809291908181526020018280546103a6906106fd565b80156103f15780601f106103c8576101008083540402835291602001916103f1565b820191905f5260205f20905b8154815290600101906020018083116103d457829003601f168201915b5050505050908060020154905083565b60025481565b60065f9054906101000a900460ff1681565b60045481565b5f8115159050919050565b6104338161041f565b82525050565b5f60208201905061044c5f83018461042a565b92915050565b5f81519050919050565b5f82825260208201905092915050565b8281835e5f83830152505050565b5f601f19601f8301169050919050565b5f61049482610452565b61049e818561045c565b93506104ae81856020860161046c565b6104b78161047a565b840191505092915050565b5f6020820190508181035f8301526104da818461048a565b905092915050565b5f60ff82169050919050565b6104f7816104e2565b82525050565b5f6020820190506105105f8301846104ee565b92915050565b5f819050919050565b61052881610516565b82525050565b5f6020820190506105415f83018461051f565b92915050565b5f73ffffffffffffffffffffffffffffffffffffffff82169050919050565b5f61057082610547565b9050919050565b61058081610566565b82525050565b5f6020820190506105995f830184610577565b92915050565b5f819050919050565b6105b18161059f565b82525050565b5f6020820190506105ca5f8301846105a8565b92915050565b5f6060820190508181035f8301526105e8818661048a565b905081810360208301526105fc818561048a565b905061060b60408301846105a8565b949350505050565b7f4e487b71000000000000000000000000000000000000000000000000000000005f52602160045260245ffd5b6002811061065157610650610613565b5b50565b5f81905061066182610640565b919050565b5f61067082610654565b9050919050565b61068081610666565b82525050565b5f6020820190506106995f830184610677565b92915050565b5f819050919050565b6106b18161069f565b82525050565b5f6020820190506106ca5f8301846106a8565b92915050565b7f4e487b71000000000000000000000000000000000000000000000000000000005f52602260045260245ffd5b5f600282049050600182168061071457607f821691505b602082108103610727576107266106d0565b5b5091905056fea26469706673582212207c1cb088866ac885399a3dd0ecf0c23a594e4df914aac8d662993d23d44a732064736f6c634300081e0033",
					"opcodes": "PUSH1 0xC0 PUSH1 0x40 MSTORE PUSH1 0x12 PUSH1 0xFF AND PUSH1 0x80 SWAP1 PUSH1 0xFF AND DUP2 MSTORE POP CALLVALUE DUP1 ISZERO PUSH1 0x1C JUMPI PUSH0 PUSH0 REVERT JUMPDEST POP PUSH2 0x3E8 PUSH1 0xA0 DUP2 DUP2 MSTORE POP POP PUSH1 0x80 MLOAD PUSH1 0xA0 MLOAD PUSH2 0x763 PUSH2 0x48 PUSH0 CODECOPY PUSH0 PUSH2 0x2BC ADD MSTORE PUSH0 PUSH2 0x26D ADD MSTORE PUSH2 0x763 PUSH0 RETURN INVALID PUSH1 0x80 PUSH1 0x40 MSTORE CALLVALUE DUP1 ISZERO PUSH2 0xF JUMPI PUSH0 PUSH0 REVERT JUMPDEST POP PUSH1 0x4 CALLDATASIZE LT PUSH2 0x9C JUMPI PUSH0 CALLDATALOAD PUSH1 0xE0 SHR DUP1 PUSH4 0x902D55A5 GT PUSH2 0x64 JUMPI DUP1 PUSH4 0x902D55A5 EQ PUSH2 0x136 JUMPI DUP1 PUSH4 0xA29C0BC1 EQ PUSH2 0x154 JUMPI DUP1 PUSH4 0xC3DA42B8 EQ PUSH2 0x174 JUMPI DUP1 PUSH4 0xE2179B8E EQ PUSH2 0x192 JUMPI DUP1 PUSH4 0xFFAE15BA EQ PUSH2 0x1B0 JUMPI PUSH2 0x9C JUMP JUMPDEST DUP1 PUSH4 0xDBE671F EQ PUSH2 0xA0 JUMPI DUP1 PUSH4 0x26121FF0 EQ PUSH2 0xBE JUMPI DUP1 PUSH4 0x2E0F2625 EQ PUSH2 0xDC JUMPI DUP1 PUSH4 0x4DF7E3D0 EQ PUSH2 0xFA JUMPI DUP1 PUSH4 0x8A054AC2 EQ PUSH2 0x118 JUMPI JUMPDEST PUSH0 PUSH0 REVERT JUMPDEST PUSH2 0xA8 PUSH2 0x1CE JUMP JUMPDEST PUSH1 0x40 MLOAD PUSH2 0xB5 SWAP2 SWAP1 PUSH2 0x439 JUMP JUMPDEST PUSH1 0x40 MLOAD DUP1 SWAP2 SUB SWAP1 RETURN JUMPDEST PUSH2 0xC6 PUSH2 0x1DF JUMP JUMPDEST PUSH1 0x40 MLOAD PUSH2 0xD3 SWAP2 SWAP1 PUSH2 0x4C2 JUMP JUMPDEST PUSH1 0x40 MLOAD DUP1 SWAP2 SUB SWAP1 RETURN JUMPDEST PUSH2 0xE4 PUSH2 0x26B JUMP JUMPDEST PUSH1 0x40 MLOAD PUSH2 0xF1 SWAP2 SWAP1 PUSH2 0x4FD JUMP JUMPDEST PUSH1 0x40 MLOAD DUP1 SWAP2 SUB SWAP1 RETURN JUMPDEST PUSH2 0x102 PUSH2 0x28F JUMP JUMPDEST PUSH1 0x40 MLOAD PUSH2 0x10F SWAP2 SWAP1 PUSH2 0x52E JUMP JUMPDEST PUSH1 0x40 MLOAD DUP1 SWAP2 SUB SWAP1 RETURN JUMPDEST PUSH2 0x120 PUSH2 0x295 JUMP JUMPDEST PUSH1 0x40 MLOAD PUSH2 0x12D SWAP2 SWAP1 PUSH2 0x586 JUMP JUMPDEST PUSH1 0x40 MLOAD DUP1 SWAP2 SUB SWAP1 RETURN JUMPDEST PUSH2 0x13E PUSH2 0x2BA JUMP JUMPDEST PUSH1 0x40 MLOAD PUSH2 0x14B SWAP2 SWAP1 PUSH2 0x5B7 JUMP JUMPDEST PUSH1 0x40 MLOAD DUP1 SWAP2 SUB SWAP1 RETURN JUMPDEST PUSH2 0x15C PUSH2 0x2DE JUMP JUMPDEST PUSH1 0x40 MLOAD PUSH2 0x16B SWAP4 SWAP3 SWAP2 SWAP1 PUSH2 0x5D0 JUMP JUMPDEST PUSH1 0x40 MLOAD DUP1 SWAP2 SUB SWAP1 RETURN JUMPDEST PUSH2 0x17C PUSH2 0x401 JUMP JUMPDEST PUSH1 0x40 MLOAD PUSH2 0x189 SWAP2 SWAP1 PUSH2 0x5B7 JUMP JUMPDEST PUSH1 0x40 MLOAD DUP1 SWAP2 SUB SWAP1 RETURN JUMPDEST PUSH2 0x19A PUSH2 0x407 JUMP JUMPDEST PUSH1 0x40 MLOAD PUSH2 0x1A7 SWAP2 SWAP1 PUSH2 0x686 JUMP JUMPDEST PUSH1 0x40 MLOAD DUP1 SWAP2 SUB SWAP1 RETURN JUMPDEST PUSH2 0x1B8 PUSH2 0x419 JUMP JUMPDEST PUSH1 0x40 MLOAD PUSH2 0x1C5 SWAP2 SWAP1 PUSH2 0x6B7 JUMP JUMPDEST PUSH1 0x40 MLOAD DUP1 SWAP2 SUB SWAP1 RETURN JUMPDEST PUSH0 PUSH0 SWAP1 SLOAD SWAP1 PUSH2 0x100 EXP SWAP1 DIV PUSH1 0xFF AND DUP2 JUMP JUMPDEST PUSH1 0x5 DUP1 SLOAD PUSH2 0x1EC SWAP1 PUSH2 0x6FD JUMP JUMPDEST DUP1 PUSH1 0x1F ADD PUSH1 0x20 DUP1 SWAP2 DIV MUL PUSH1 0x20 ADD PUSH1 0x40 MLOAD SWAP1 DUP2 ADD PUSH1 0x40 MSTORE DUP1 SWAP3 SWAP2 SWAP1 DUP2 DUP2 MSTORE PUSH1 0x20 ADD DUP3 DUP1 SLOAD PUSH2 0x218 SWAP1 PUSH2 0x6FD JUMP JUMPDEST DUP1 ISZERO PUSH2 0x263 JUMPI DUP1 PUSH1 0x1F LT PUSH2 0x23A JUMPI PUSH2 0x100 DUP1 DUP4 SLOAD DIV MUL DUP4 MSTORE SWAP2 PUSH1 0x20 ADD SWAP2 PUSH2 0x263 JUMP JUMPDEST DUP3 ADD SWAP2 SWAP1 PUSH0 MSTORE PUSH1 0x20 PUSH0 KECCAK256 SWAP1 JUMPDEST DUP2 SLOAD DUP2 MSTORE SWAP1 PUSH1 0x1 ADD SWAP1 PUSH1 0x20 ADD DUP1 DUP4 GT PUSH2 0x246 JUMPI DUP3 SWAP1 SUB PUSH1 0x1F AND DUP3 ADD SWAP2 JUMPDEST POP POP POP POP POP DUP2 JUMP JUMPDEST PUSH32 0x0 DUP2 JUMP JUMPDEST PUSH1 0x1 SLOAD DUP2 JUMP JUMPDEST PUSH1 0x3 PUSH0 SWAP1 SLOAD SWAP1 PUSH2 0x100 EXP SWAP1 DIV PUSH20 0xFFFFFFFFFFFFFFFFFFFFFFFFFFFFFFFFFFFFFFFF AND DUP2 JUMP JUMPDEST PUSH32 0x0 DUP2 JUMP JUMPDEST PUSH1 0x7 DUP1 PUSH0 ADD DUP1 SLOAD PUSH2 0x2EE SWAP1 PUSH2 0x6FD JUMP JUMPDEST DUP1 PUSH1 0x1F ADD PUSH1 0x20 DUP1 SWAP2 DIV MUL PUSH1 0x20 ADD PUSH1 0x40 MLOAD SWAP1 DUP2 ADD PUSH1 0x40 MSTORE DUP1 SWAP3 SWAP2 SWAP1 DUP2 DUP2 MSTORE PUSH1 0x20 ADD DUP3 DUP1 SLOAD PUSH2 0x31A SWAP1 PUSH2 0x6FD JUMP JUMPDEST DUP1 ISZERO PUSH2 0x365 JUMPI DUP1 PUSH1 0x1F LT PUSH2 0x33C JUMPI PUSH2 0x100 DUP1 DUP4 SLOAD DIV MUL DUP4 MSTORE SWAP2 PUSH1 0x20 ADD SWAP2 PUSH2 0x365 JUMP JUMPDEST DUP3 ADD SWAP2 SWAP1 PUSH0 MSTORE PUSH1 0x20 PUSH0 KECCAK256 SWAP1 JUMPDEST DUP2 SLOAD DUP2 MSTORE SWAP1 PUSH1 0x1 ADD SWAP1 PUSH1 0x20 ADD DUP1 DUP4 GT PUSH2 0x348 JUMPI DUP3 SWAP1 SUB PUSH1 0x1F AND DUP3 ADD SWAP2 JUMPDEST POP POP POP POP POP SWAP1 DUP1 PUSH1 0x1 ADD DUP1 SLOAD PUSH2 0x37A SWAP1 PUSH2 0x6FD JUMP JUMPDEST DUP1 PUSH1 0x1F ADD PUSH1 0x20 DUP1 SWAP2 DIV MUL PUSH1 0x20 ADD PUSH1 0x40 MLOAD SWAP1 DUP2 ADD PUSH1 0x40 MSTORE DUP1 SWAP3 SWAP2 SWAP1 DUP2 DUP2 MSTORE PUSH1 0x20 ADD DUP3 DUP1 SLOAD PUSH2 0x3A6 SWAP1 PUSH2 0x6FD JUMP JUMPDEST DUP1 ISZERO PUSH2 0x3F1 JUMPI DUP1 PUSH1 0x1F LT PUSH2 0x3C8 JUMPI PUSH2 0x100 DUP1 DUP4 SLOAD DIV MUL DUP4 MSTORE SWAP2 PUSH1 0x20 ADD SWAP2 PUSH2 0x3F1 JUMP JUMPDEST DUP3 ADD SWAP2 SWAP1 PUSH0 MSTORE PUSH1 0x20 PUSH0 KECCAK256 SWAP1 JUMPDEST DUP2 SLOAD DUP2 MSTORE SWAP1 PUSH1 0x1 ADD SWAP1 PUSH1 0x20 ADD DUP1 DUP4 GT PUSH2 0x3D4 JUMPI DUP3 SWAP1 SUB PUSH1 0x1F AND DUP3 ADD SWAP2 JUMPDEST POP POP POP POP POP SWAP1 DUP1 PUSH1 0x2 ADD SLOAD SWAP1 POP DUP4 JUMP JUMPDEST PUSH1 0x2 SLOAD DUP2 JUMP JUMPDEST PUSH1 0x6 PUSH0 SWAP1 SLOAD SWAP1 PUSH2 0x100 EXP SWAP1 DIV PUSH1 0xFF AND DUP2 JUMP JUMPDEST PUSH1 0x4 SLOAD DUP2 JUMP JUMPDEST PUSH0 DUP2 ISZERO ISZERO SWAP1 POP SWAP2 SWAP1 POP JUMP JUMPDEST PUSH2 0x433 DUP2 PUSH2 0x41F JUMP JUMPDEST DUP3 MSTORE POP POP JUMP JUMPDEST PUSH0 PUSH1 0x20 DUP3 ADD SWAP1 POP PUSH2 0x44C PUSH0 DUP4 ADD DUP5 PUSH2 0x42A JUMP JUMPDEST SWAP3 SWAP2 POP POP JUMP JUMPDEST PUSH0 DUP2 MLOAD SWAP1 POP SWAP2 SWAP1 POP JUMP JUMPDEST PUSH0 DUP3 DUP3 MSTORE PUSH1 0x20 DUP3 ADD SWAP1 POP SWAP3 SWAP2 POP POP JUMP JUMPDEST DUP3 DUP2 DUP4 MCOPY PUSH0 DUP4 DUP4 ADD MSTORE POP POP POP JUMP JUMPDEST PUSH0 PUSH1 0x1F NOT PUSH1 0x1F DUP4 ADD AND SWAP1 POP SWAP2 SWAP1 POP JUMP JUMPDEST PUSH0 PUSH2 0x494 DUP3 PUSH2 0x452 JUMP JUMPDEST PUSH2 0x49E DUP2 DUP6 PUSH2 0x45C JUMP JUMPDEST SWAP4 POP PUSH2 0x4AE DUP2 DUP6 PUSH1 0x20 DUP7 ADD PUSH2 0x46C JUMP JUMPDEST PUSH2 0x4B7 DUP2 PUSH2 0x47A JUMP JUMPDEST DUP5 ADD SWAP2 POP POP SWAP3 SWAP2 POP POP JUMP JUMPDEST PUSH0 PUSH1 0x20 DUP3 ADD SWAP1 POP DUP2 DUP2 SUB PUSH0 DUP4 ADD MSTORE PUSH2 0x4DA DUP2 DUP5 PUSH2 0x48A JUMP JUMPDEST SWAP1 POP SWAP3 SWAP2 POP POP JUMP JUMPDEST PUSH0 PUSH1 0xFF DUP3 AND SWAP1 POP SWAP2 SWAP1 POP JUMP JUMPDEST PUSH2 0x4F7 DUP2 PUSH2 0x4E2 JUMP JUMPDEST DUP3 MSTORE POP POP JUMP JUMPDEST PUSH0 PUSH1 0x20 DUP3 ADD SWAP1 POP PUSH2 0x510 PUSH0 DUP4 ADD DUP5 PUSH2 0x4EE JUMP JUMPDEST SWAP3 SWAP2 POP POP JUMP JUMPDEST PUSH0 DUP2 SWAP1 POP SWAP2 SWAP1 POP JUMP JUMPDEST PUSH2 0x528 DUP2 PUSH2 0x516 JUMP JUMPDEST DUP3 MSTORE POP POP JUMP JUMPDEST PUSH0 PUSH1 0x20 DUP3 ADD SWAP1 POP PUSH2 0x541 PUSH0 DUP4 ADD DUP5 PUSH2 0x51F JUMP JUMPDEST SWAP3 SWAP2 POP POP JUMP JUMPDEST PUSH0 PUSH20 0xFFFFFFFFFFFFFFFFFFFFFFFFFFFFFFFFFFFFFFFF DUP3 AND SWAP1 POP SWAP2 SWAP1 POP JUMP JUMPDEST PUSH0 PUSH2 0x570 DUP3 PUSH2 0x547 JUMP JUMPDEST SWAP1 POP SWAP2 SWAP1 POP JUMP JUMPDEST PUSH2 0x580 DUP2 PUSH2 0x566 JUMP JUMPDEST DUP3 MSTORE POP POP JUMP JUMPDEST PUSH0 PUSH1 0x20 DUP3 ADD SWAP1 POP PUSH2 0x599 PUSH0 DUP4 ADD DUP5 PUSH2 0x577 JUMP JUMPDEST SWAP3 SWAP2 POP POP JUMP JUMPDEST PUSH0 DUP2 SWAP1 POP SWAP2 SWAP1 POP JUMP JUMPDEST PUSH2 0x5B1 DUP2 PUSH2 0x59F JUMP JUMPDEST DUP3 MSTORE POP POP JUMP JUMPDEST PUSH0 PUSH1 0x20 DUP3 ADD SWAP1 POP PUSH2 0x5CA PUSH0 DUP4 ADD DUP5 PUSH2 0x5A8 JUMP JUMPDEST SWAP3 SWAP2 POP POP JUMP JUMPDEST PUSH0 PUSH1 0x60 DUP3 ADD SWAP1 POP DUP2 DUP2 SUB PUSH0 DUP4 ADD MSTORE PUSH2 0x5E8 DUP2 DUP7 PUSH2 0x48A JUMP JUMPDEST SWAP1 POP DUP2 DUP2 SUB PUSH1 0x20 DUP4 ADD MSTORE PUSH2 0x5FC DUP2 DUP6 PUSH2 0x48A JUMP JUMPDEST SWAP1 POP PUSH2 0x60B PUSH1 0x40 DUP4 ADD DUP5 PUSH2 0x5A8 JUMP JUMPDEST SWAP5 SWAP4 POP POP POP POP JUMP JUMPDEST PUSH32 0x4E487B7100000000000000000000000000000000000000000000000000000000 PUSH0 MSTORE PUSH1 0x21 PUSH1 0x4 MSTORE PUSH1 0x24 PUSH0 REVERT JUMPDEST PUSH1 0x2 DUP2 LT PUSH2 0x651 JUMPI PUSH2 0x650 PUSH2 0x613 JUMP JUMPDEST JUMPDEST POP JUMP JUMPDEST PUSH0 DUP2 SWAP1 POP PUSH2 0x661 DUP3 PUSH2 0x640 JUMP JUMPDEST SWAP2 SWAP1 POP JUMP JUMPDEST PUSH0 PUSH2 0x670 DUP3 PUSH2 0x654 JUMP JUMPDEST SWAP1 POP SWAP2 SWAP1 POP JUMP JUMPDEST PUSH2 0x680 DUP2 PUSH2 0x666 JUMP JUMPDEST DUP3 MSTORE POP POP JUMP JUMPDEST PUSH0 PUSH1 0x20 DUP3 ADD SWAP1 POP PUSH2 0x699 PUSH0 DUP4 ADD DUP5 PUSH2 0x677 JUMP JUMPDEST SWAP3 SWAP2 POP POP JUMP JUMPDEST PUSH0 DUP2 SWAP1 POP SWAP2 SWAP1 POP JUMP JUMPDEST PUSH2 0x6B1 DUP2 PUSH2 0x69F JUMP JUMPDEST DUP3 MSTORE POP POP JUMP JUMPDEST PUSH0 PUSH1 0x20 DUP3 ADD SWAP1 POP PUSH2 0x6CA PUSH0 DUP4 ADD DUP5 PUSH2 0x6A8 JUMP JUMPDEST SWAP3 SWAP2 POP POP JUMP JUMPDEST PUSH32 0x4E487B7100000000000000000000000000000000000000000000000000000000 PUSH0 MSTORE PUSH1 0x22 PUSH1 0x4 MSTORE PUSH1 0x24 PUSH0 REVERT JUMPDEST PUSH0 PUSH1 0x2 DUP3 DIV SWAP1 POP PUSH1 0x1 DUP3 AND DUP1 PUSH2 0x714 JUMPI PUSH1 0x7F DUP3 AND SWAP2 POP JUMPDEST PUSH1 0x20 DUP3 LT DUP2 SUB PUSH2 0x727 JUMPI PUSH2 0x726 PUSH2 0x6D0 JUMP JUMPDEST JUMPDEST POP SWAP2 SWAP1 POP JUMP INVALID LOG2 PUSH5 0x6970667358 0x22 SLT KECCAK256 PUSH29 0x1CB088866AC885399A3DD0ECF0C23A594E4DF914AAC8D662993D23D44A PUSH20 0x2064736F6C634300081E00330000000000000000 "
				},
				"gasEstimates": {
					"creation": {
						"codeDepositCost": "378200",
						"executionCost": "infinite",
						"totalCost": "infinite"
					},
					"external": {
						"DECIMALS()": "infinite",
						"TOTAL_SUPPLY()": "infinite",
						"a()": "2466",
						"b()": "2492",
						"c()": "2469",
						"d()": "2597",
						"e()": "2513",
						"f()": "infinite",
						"g()": "2620",
						"mycar()": "infinite"
					}
				},
				"methodIdentifiers": {
					"DECIMALS()": "2e0f2625",
					"TOTAL_SUPPLY()": "902d55a5",
					"a()": "0dbe671f",
					"b()": "4df7e3d0",
					"c()": "c3da42b8",
					"d()": "8a054ac2",
					"e()": "ffae15ba",
					"f()": "26121ff0",
					"g()": "e2179b8e",
					"mycar()": "a29c0bc1"
				}
			},
			"storageLayout": {
				"storage": [
					{
						"astId": 22,
						"contract": "week_1/day2_VarDefault.sol:VarDefault",
						"label": "a",
						"offset": 0,
						"slot": "0",
						"type": "t_bool"
					},
					{
						"astId": 24,
						"contract": "week_1/day2_VarDefault.sol:VarDefault",
						"label": "b",
						"offset": 0,
						"slot": "1",
						"type": "t_int256"
					},
					{
						"astId": 26,
						"contract": "week_1/day2_VarDefault.sol:VarDefault",
						"label": "c",
						"offset": 0,
						"slot": "2",
						"type": "t_uint256"
					},
					{
						"astId": 28,
						"contract": "week_1/day2_VarDefault.sol:VarDefault",
						"label": "d",
						"offset": 0,
						"slot": "3",
						"type": "t_address"
					},
					{
						"astId": 30,
						"contract": "week_1/day2_VarDefault.sol:VarDefault",
						"label": "e",
						"offset": 0,
						"slot": "4",
						"type": "t_bytes32"
					},
					{
						"astId": 32,
						"contract": "week_1/day2_VarDefault.sol:VarDefault",
						"label": "f",
						"offset": 0,
						"slot": "5",
						"type": "t_string_storage"
					},
					{
						"astId": 35,
						"contract": "week_1/day2_VarDefault.sol:VarDefault",
						"label": "g",
						"offset": 0,
						"slot": "6",
						"type": "t_enum(status)20"
					},
					{
						"astId": 45,
						"contract": "week_1/day2_VarDefault.sol:VarDefault",
						"label": "mycar",
						"offset": 0,
						"slot": "7",
						"type": "t_struct(car)42_storage"
					}
				],
				"types": {
					"t_address": {
						"encoding": "inplace",
						"label": "address",
						"numberOfBytes": "20"
					},
					"t_bool": {
						"encoding": "inplace",
						"label": "bool",
						"numberOfBytes": "1"
					},
					"t_bytes32": {
						"encoding": "inplace",
						"label": "bytes32",
						"numberOfBytes": "32"
					},
					"t_enum(status)20": {
						"encoding": "inplace",
						"label": "enum VarDefault.status",
						"numberOfBytes": "1"
					},
					"t_int256": {
						"encoding": "inplace",
						"label": "int256",
						"numberOfBytes": "32"
					},
					"t_string_storage": {
						"encoding": "bytes",
						"label": "string",
						"numberOfBytes": "32"
					},
					"t_struct(car)42_storage": {
						"encoding": "inplace",
						"label": "struct VarDefault.car",
						"members": [
							{
								"astId": 37,
								"contract": "week_1/day2_VarDefault.sol:VarDefault",
								"label": "name",
								"offset": 0,
								"slot": "0",
								"type": "t_string_storage"
							},
							{
								"astId": 39,
								"contract": "week_1/day2_VarDefault.sol:VarDefault",
								"label": "carType",
								"offset": 0,
								"slot": "1",
								"type": "t_string_storage"
							},
							{
								"astId": 41,
								"contract": "week_1/day2_VarDefault.sol:VarDefault",
								"label": "price",
								"offset": 0,
								"slot": "2",
								"type": "t_uint256"
							}
						],
						"numberOfBytes": "96"
					},
					"t_uint256": {
						"encoding": "inplace",
						"label": "uint256",
						"numberOfBytes": "32"
					}
				}
			},
			"userdoc": {
				"kind": "user",
				"methods": {},
				"version": 1
			}
		}
	}
}