{
	"TestInt.sol": {
		"Counter": {
			"abi": [
				{
					"inputs": [],
					"stateMutability": "nonpayable",
					"type": "constructor"
				},
				{
					"inputs": [],
					"name": "add",
					"outputs": [],
					"stateMutability": "nonpayable",
					"type": "function"
				},
				{
					"inputs": [],
					"name": "get",
					"outputs": [
						{
							"internalType": "uint256",
							"name": "",
							"type": "uint256"
						},
						{
							"internalType": "uint256",
							"name": "",
							"type": "uint256"
						}
					],
					"stateMutability": "view",
					"type": "function"
				}
			],
			"devdoc": {
				"kind": "dev",
				"methods": {},
				"version": 1
			},
			"evm": {
				"assembly": "    /* \"TestInt.sol\":59:453  contract Counter {... */\n  mstore(0x40, 0x80)\n    /* \"TestInt.sol\":188:255  constructor() {... */\n  callvalue\n  dup1\n  iszero\n  tag_1\n  jumpi\n  revert(0x00, 0x00)\ntag_1:\n  pop\n    /* \"TestInt.sol\":223:224  0 */\n  0x00\n    /* \"TestInt.sol\":213:220  counter */\n  0x00\n    /* \"TestInt.sol\":213:224  counter = 0 */\n  dup2\n  swap1\n  sstore\n  pop\n    /* \"TestInt.sol\":59:453  contract Counter {... */\n  dataSize(sub_0)\n  dup1\n  dataOffset(sub_0)\n  0x00\n  codecopy\n  0x00\n  return\nstop\n\nsub_0: assembly {\n        /* \"TestInt.sol\":59:453  contract Counter {... */\n      mstore(0x40, 0x80)\n      callvalue\n      dup1\n      iszero\n      tag_1\n      jumpi\n      revert(0x00, 0x00)\n    tag_1:\n      pop\n      jumpi(tag_2, lt(calldatasize, 0x04))\n      shr(0xe0, calldataload(0x00))\n      dup1\n      0x4f2be91f\n      eq\n      tag_3\n      jumpi\n      dup1\n      0x6d4ce63c\n      eq\n      tag_4\n      jumpi\n    tag_2:\n      revert(0x00, 0x00)\n        /* \"TestInt.sol\":263:327  function add() public {... */\n    tag_3:\n      tag_5\n      tag_6\n      jump\t// in\n    tag_5:\n      stop\n        /* \"TestInt.sol\":335:450  function get() public view returns (uint,uint) {... */\n    tag_4:\n      tag_7\n      tag_8\n      jump\t// in\n    tag_7:\n      mload(0x40)\n      tag_9\n      swap3\n      swap2\n      swap1\n      tag_10\n      jump\t// in\n    tag_9:\n      mload(0x40)\n      dup1\n      swap2\n      sub\n      swap1\n      return\n        /* \"TestInt.sol\":263:327  function add() public {... */\n    tag_6:\n        /* \"TestInt.sol\":138:140  10 */\n      0x0a\n        /* \"TestInt.sol\":306:313  counter */\n      sload(0x00)\n        /* \"TestInt.sol\":306:319  counter + TEN */\n      tag_12\n      swap2\n      swap1\n      tag_13\n      jump\t// in\n    tag_12:\n        /* \"TestInt.sol\":296:303  counter */\n      0x00\n        /* \"TestInt.sol\":296:319  counter = counter + TEN */\n      dup2\n      swap1\n      sstore\n      pop\n        /* \"TestInt.sol\":263:327  function add() public {... */\n      jump\t// out\n        /* \"TestInt.sol\":335:450  function get() public view returns (uint,uint) {... */\n    tag_8:\n        /* \"TestInt.sol\":371:375  uint */\n      0x00\n        /* \"TestInt.sol\":376:380  uint */\n      0x00\n        /* \"TestInt.sol\":401:408  counter */\n      sload(0x00)\n        /* \"TestInt.sol\":138:140  10 */\n      0x0a\n        /* \"TestInt.sol\":393:414  return (counter, TEN) */\n      swap2\n      pop\n      swap2\n      pop\n        /* \"TestInt.sol\":335:450  function get() public view returns (uint,uint) {... */\n      swap1\n      swap2\n      jump\t// out\n        /* \"#utility.yul\":7:84   */\n    tag_15:\n        /* \"#utility.yul\":44:51   */\n      0x00\n        /* \"#utility.yul\":73:78   */\n      dup2\n        /* \"#utility.yul\":62:78   */\n      swap1\n      pop\n        /* \"#utility.yul\":7:84   */\n      swap2\n      swap1\n      pop\n      jump\t// out\n        /* \"#utility.yul\":90:208   */\n    tag_16:\n        /* \"#utility.yul\":177:201   */\n      tag_21\n        /* \"#utility.yul\":195:200   */\n      dup2\n        /* \"#utility.yul\":177:201   */\n      tag_15\n      jump\t// in\n    tag_21:\n        /* \"#utility.yul\":172:175   */\n      dup3\n        /* \"#utility.yul\":165:202   */\n      mstore\n        /* \"#utility.yul\":90:208   */\n      pop\n      pop\n      jump\t// out\n        /* \"#utility.yul\":214:546   */\n    tag_10:\n        /* \"#utility.yul\":335:339   */\n      0x00\n        /* \"#utility.yul\":373:375   */\n      0x40\n        /* \"#utility.yul\":362:371   */\n      dup3\n        /* \"#utility.yul\":358:376   */\n      add\n        /* \"#utility.yul\":350:376   */\n      swap1\n      pop\n        /* \"#utility.yul\":386:457   */\n      tag_23\n        /* \"#utility.yul\":454:455   */\n      0x00\n        /* \"#utility.yul\":443:452   */\n      dup4\n        /* \"#utility.yul\":439:456   */\n      add\n        /* \"#utility.yul\":430:436   */\n      dup6\n        /* \"#utility.yul\":386:457   */\n      tag_16\n      jump\t// in\n    tag_23:\n        /* \"#utility.yul\":467:539   */\n      tag_24\n        /* \"#utility.yul\":535:537   */\n      0x20\n        /* \"#utility.yul\":524:533   */\n      dup4\n        /* \"#utility.yul\":520:538   */\n      add\n        /* \"#utility.yul\":511:517   */\n      dup5\n        /* \"#utility.yul\":467:539   */\n      tag_16\n      jump\t// in\n    tag_24:\n        /* \"#utility.yul\":214:546   */\n      swap4\n      swap3\n      pop\n      pop\n      pop\n      jump\t// out\n        /* \"#utility.yul\":552:732   */\n    tag_17:\n        /* \"#utility.yul\":600:677   */\n      0x4e487b7100000000000000000000000000000000000000000000000000000000\n        /* \"#utility.yul\":597:598   */\n      0x00\n        /* \"#utility.yul\":590:678   */\n      mstore\n        /* \"#utility.yul\":697:701   */\n      0x11\n        /* \"#utility.yul\":694:695   */\n      0x04\n        /* \"#utility.yul\":687:702   */\n      mstore\n        /* \"#utility.yul\":721:725   */\n      0x24\n        /* \"#utility.yul\":718:719   */\n      0x00\n        /* \"#utility.yul\":711:726   */\n      revert\n        /* \"#utility.yul\":738:929   */\n    tag_13:\n        /* \"#utility.yul\":778:781   */\n      0x00\n        /* \"#utility.yul\":797:817   */\n      tag_27\n        /* \"#utility.yul\":815:816   */\n      dup3\n        /* \"#utility.yul\":797:817   */\n      tag_15\n      jump\t// in\n    tag_27:\n        /* \"#utility.yul\":792:817   */\n      swap2\n      pop\n        /* \"#utility.yul\":831:851   */\n      tag_28\n        /* \"#utility.yul\":849:850   */\n      dup4\n        /* \"#utility.yul\":831:851   */\n      tag_15\n      jump\t// in\n    tag_28:\n        /* \"#utility.yul\":826:851   */\n      swap3\n      pop\n        /* \"#utility.yul\":874:875   */\n      dup3\n        /* \"#utility.yul\":871:872   */\n      dup3\n        /* \"#utility.yul\":867:876   */\n      add\n        /* \"#utility.yul\":860:876   */\n      swap1\n      pop\n        /* \"#utility.yul\":895:898   */\n      dup1\n        /* \"#utility.yul\":892:893   */\n      dup3\n        /* \"#utility.yul\":889:899   */\n      gt\n        /* \"#utility.yul\":886:922   */\n      iszero\n      tag_29\n      jumpi\n        /* \"#utility.yul\":902:920   */\n      tag_30\n      tag_17\n      jump\t// in\n    tag_30:\n        /* \"#utility.yul\":886:922   */\n    tag_29:\n        /* \"#utility.yul\":738:929   */\n      swap3\n      swap2\n      pop\n      pop\n      jump\t// out\n\n    auxdata: 0xa26469706673582212208a539605a4e4286ce28719ec938cde499c818379401fba6661fdee101194899864736f6c634300081e0033\n}\n",
				"bytecode": {
					"linkReferences": {},
					"object": "6080604052348015600e575f5ffd5b505f5f81905550610159806100225f395ff3fe608060405234801561000f575f5ffd5b5060043610610034575f3560e01c80634f2be91f146100385780636d4ce63c14610042575b5f5ffd5b610040610061565b005b61004a610076565b60405161005892919061009c565b60405180910390f35b600a5f5461006f91906100f0565b5f81905550565b5f5f5f54600a915091509091565b5f819050919050565b61009681610084565b82525050565b5f6040820190506100af5f83018561008d565b6100bc602083018461008d565b9392505050565b7f4e487b71000000000000000000000000000000000000000000000000000000005f52601160045260245ffd5b5f6100fa82610084565b915061010583610084565b925082820190508082111561011d5761011c6100c3565b5b9291505056fea26469706673582212208a539605a4e4286ce28719ec938cde499c818379401fba6661fdee101194899864736f6c634300081e0033",
					"opcodes": "PUSH1 0x80 PUSH1 0x40 MSTORE CALLVALUE DUP1 ISZERO PUSH1 0xE JUMPI PUSH0 PUSH0 REVERT JUMPDEST POP PUSH0 PUSH0 DUP2 SWAP1 SSTORE POP PUSH2 0x159 DUP1 PUSH2 0x22 PUSH0 CODECOPY PUSH0 RETURN INVALID PUSH1 0x80 PUSH1 0x40 MSTORE CALLVALUE DUP1 ISZERO PUSH2 0xF JUMPI PUSH0 PUSH0 REVERT JUMPDEST POP PUSH1 0x4 CALLDATASIZE LT PUSH2 0x34 JUMPI PUSH0 CALLDATALOAD PUSH1 0xE0 SHR DUP1 PUSH4 0x4F2BE91F EQ PUSH2 0x38 JUMPI DUP1 PUSH4 0x6D4CE63C EQ PUSH2 0x42 JUMPI JUMPDEST PUSH0 PUSH0 REVERT JUMPDEST PUSH2 0x40 PUSH2 0x61 JUMP JUMPDEST STOP JUMPDEST PUSH2 0x4A PUSH2 0x76 JUMP JUMPDEST PUSH1 0x40 MLOAD PUSH2 0x58 SWAP3 SWAP2 SWAP1 PUSH2 0x9C JUMP JUMPDEST PUSH1 0x40 MLOAD DUP1 SWAP2 SUB SWAP1 RETURN JUMPDEST PUSH1 0xA PUSH0 SLOAD PUSH2 0x6F SWAP2 SWAP1 PUSH2 0xF0 JUMP JUMPDEST PUSH0 DUP2 SWAP1 SSTORE POP JUMP JUMPDEST PUSH0 PUSH0 PUSH0 SLOAD PUSH1 0xA SWAP2 POP SWAP2 POP SWAP1 SWAP2 JUMP JUMPDEST PUSH0 DUP2 SWAP1 POP SWAP2 SWAP1 POP JUMP JUMPDEST PUSH2 0x96 DUP2 PUSH2 0x84 JUMP JUMPDEST DUP3 MSTORE POP POP JUMP JUMPDEST PUSH0 PUSH1 0x40 DUP3 ADD SWAP1 POP PUSH2 0xAF PUSH0 DUP4 ADD DUP6 PUSH2 0x8D JUMP JUMPDEST PUSH2 0xBC PUSH1 0x20 DUP4 ADD DUP5 PUSH2 0x8D JUMP JUMPDEST SWAP4 SWAP3 POP POP POP JUMP JUMPDEST PUSH32 0x4E487B7100000000000000000000000000000000000000000000000000000000 PUSH0 MSTORE PUSH1 0x11 PUSH1 0x4 MSTORE PUSH1 0x24 PUSH0 REVERT JUMPDEST PUSH0 PUSH2 0xFA DUP3 PUSH2 0x84 JUMP JUMPDEST SWAP2 POP PUSH2 0x105 DUP4 PUSH2 0x84 JUMP JUMPDEST SWAP3 POP DUP3 DUP3 ADD SWAP1 POP DUP1 DUP3 GT ISZERO PUSH2 0x11D JUMPI PUSH2 0x11C PUSH2 0xC3 JUMP JUMPDEST JUMPDEST SWAP3 SWAP2 POP POP JUMP INVALID LOG2 PUSH5 0x6970667358 0x22 SLT KECCAK256 DUP11 MSTORE8 SWAP7 SDIV LOG4 RETF 0x28 PUSH13 0xE28719EC938CDE499C81837940 0x1F 0xBA PUSH7 0x61FDEE10119489 SWAP9 PUSH5 0x736F6C6343 STOP ADDMOD 0x1E STOP CALLER "
				},
				"gasEstimates": {
					"creation": {
						"codeDepositCost": "69000",
						"executionCost": "5127",
						"totalCost": "74127"
					},
					"external": {
						"add()": "infinite",
						"get()": "infinite"
					}
				},
				"methodIdentifiers": {
					"add()": "4f2be91f",
					"get()": "6d4ce63c"
				}
			},
			"storageLayout": {
				"storage": [
					{
						"astId": 3,
						"contract": "TestInt.sol:Counter",
						"label": "counter",
						"offset": 0,
						"slot": "0",
						"type": "t_uint256"
					}
				],
				"types": {
					"t_uint256": {
						"encoding": "inplace",
						"label": "uint256",
						"numberOfBytes": "32"
					}
				}
			},
			"userdoc": {
				"kind": "user",
				"methods": {},
				"version": 1
			}
		}
	}
}