{
	"demo.sol": {
		"Counter": {
			"abi": [
				{
					"inputs": [],
					"stateMutability": "nonpayable",
					"type": "constructor"
				},
				{
					"inputs": [],
					"name": "count",
					"outputs": [],
					"stateMutability": "nonpayable",
					"type": "function"
				},
				{
					"inputs": [],
					"name": "get",
					"outputs": [
						{
							"internalType": "uint256",
							"name": "",
							"type": "uint256"
						},
						{
							"internalType": "uint256",
							"name": "",
							"type": "uint256"
						}
					],
					"stateMutability": "view",
					"type": "function"
				}
			],
			"devdoc": {
				"kind": "dev",
				"methods": {},
				"version": 1
			},
			"evm": {
				"assembly": "    /* \"demo.sol\":59:325  contract Counter {... */\n  mstore(0x40, 0x80)\n    /* \"demo.sol\":104:148  constructor() {... */\n  callvalue\n  dup1\n  iszero\n  tag_1\n  jumpi\n  0x00\n  dup1\n  revert\ntag_1:\n  pop\n    /* \"demo.sol\":139:140  0 */\n  0x00\n    /* \"demo.sol\":129:136  counter */\n  dup1\n    /* \"demo.sol\":129:140  counter = 0 */\n  dup2\n  swap1\n  sstore\n  pop\n    /* \"demo.sol\":59:325  contract Counter {... */\n  dataSize(sub_0)\n  dup1\n  dataOffset(sub_0)\n  0x00\n  codecopy\n  0x00\n  return\nstop\n\nsub_0: assembly {\n        /* \"demo.sol\":59:325  contract Counter {... */\n      mstore(0x40, 0x80)\n      callvalue\n      dup1\n      iszero\n      tag_1\n      jumpi\n      0x00\n      dup1\n      revert\n    tag_1:\n      pop\n      jumpi(tag_2, lt(calldatasize, 0x04))\n      shr(0xe0, calldataload(0x00))\n      dup1\n      0x06661abd\n      eq\n      tag_3\n      jumpi\n      dup1\n      0x6d4ce63c\n      eq\n      tag_4\n      jumpi\n    tag_2:\n      0x00\n      dup1\n      revert\n        /* \"demo.sol\":156:220  function count() public {... */\n    tag_3:\n      tag_5\n      tag_6\n      jump\t// in\n    tag_5:\n      stop\n        /* \"demo.sol\":228:322  function get() public view returns (uint, uint) {... */\n    tag_4:\n      tag_7\n      tag_8\n      jump\t// in\n    tag_7:\n      mload(0x40)\n      tag_9\n      swap3\n      swap2\n      swap1\n      tag_10\n      jump\t// in\n    tag_9:\n      mload(0x40)\n      dup1\n      swap2\n      sub\n      swap1\n      return\n        /* \"demo.sol\":156:220  function count() public {... */\n    tag_6:\n        /* \"demo.sol\":211:212  1 */\n      0x01\n        /* \"demo.sol\":201:208  counter */\n      sload(0x00)\n        /* \"demo.sol\":201:212  counter + 1 */\n      tag_12\n      swap2\n      swap1\n      tag_13\n      jump\t// in\n    tag_12:\n        /* \"demo.sol\":191:198  counter */\n      0x00\n        /* \"demo.sol\":191:212  counter = counter + 1 */\n      dup2\n      swap1\n      sstore\n      pop\n        /* \"demo.sol\":156:220  function count() public {... */\n      jump\t// out\n        /* \"demo.sol\":228:322  function get() public view returns (uint, uint) {... */\n    tag_8:\n        /* \"demo.sol\":264:268  uint */\n      0x00\n        /* \"demo.sol\":270:274  uint */\n      dup1\n        /* \"demo.sol\":295:302  counter */\n      sload(0x00)\n        /* \"demo.sol\":312:313  3 */\n      0x03\n        /* \"demo.sol\":304:311  counter */\n      sload(0x00)\n        /* \"demo.sol\":304:313  counter*3 */\n      tag_15\n      swap2\n      swap1\n      tag_16\n      jump\t// in\n    tag_15:\n        /* \"demo.sol\":287:314  return (counter, counter*3) */\n      swap2\n      pop\n      swap2\n      pop\n        /* \"demo.sol\":228:322  function get() public view returns (uint, uint) {... */\n      swap1\n      swap2\n      jump\t// out\n        /* \"#utility.yul\":7:84   */\n    tag_17:\n        /* \"#utility.yul\":44:51   */\n      0x00\n        /* \"#utility.yul\":73:78   */\n      dup2\n        /* \"#utility.yul\":62:78   */\n      swap1\n      pop\n        /* \"#utility.yul\":7:84   */\n      swap2\n      swap1\n      pop\n      jump\t// out\n        /* \"#utility.yul\":90:208   */\n    tag_18:\n        /* \"#utility.yul\":177:201   */\n      tag_23\n        /* \"#utility.yul\":195:200   */\n      dup2\n        /* \"#utility.yul\":177:201   */\n      tag_17\n      jump\t// in\n    tag_23:\n        /* \"#utility.yul\":172:175   */\n      dup3\n        /* \"#utility.yul\":165:202   */\n      mstore\n        /* \"#utility.yul\":90:208   */\n      pop\n      pop\n      jump\t// out\n        /* \"#utility.yul\":214:546   */\n    tag_10:\n        /* \"#utility.yul\":335:339   */\n      0x00\n        /* \"#utility.yul\":373:375   */\n      0x40\n        /* \"#utility.yul\":362:371   */\n      dup3\n        /* \"#utility.yul\":358:376   */\n      add\n        /* \"#utility.yul\":350:376   */\n      swap1\n      pop\n        /* \"#utility.yul\":386:457   */\n      tag_25\n        /* \"#utility.yul\":454:455   */\n      0x00\n        /* \"#utility.yul\":443:452   */\n      dup4\n        /* \"#utility.yul\":439:456   */\n      add\n        /* \"#utility.yul\":430:436   */\n      dup6\n        /* \"#utility.yul\":386:457   */\n      tag_18\n      jump\t// in\n    tag_25:\n        /* \"#utility.yul\":467:539   */\n      tag_26\n        /* \"#utility.yul\":535:537   */\n      0x20\n        /* \"#utility.yul\":524:533   */\n      dup4\n        /* \"#utility.yul\":520:538   */\n      add\n        /* \"#utility.yul\":511:517   */\n      dup5\n        /* \"#utility.yul\":467:539   */\n      tag_18\n      jump\t// in\n    tag_26:\n        /* \"#utility.yul\":214:546   */\n      swap4\n      swap3\n      pop\n      pop\n      pop\n      jump\t// out\n        /* \"#utility.yul\":552:732   */\n    tag_19:\n        /* \"#utility.yul\":600:677   */\n      0x4e487b7100000000000000000000000000000000000000000000000000000000\n        /* \"#utility.yul\":597:598   */\n      0x00\n        /* \"#utility.yul\":590:678   */\n      mstore\n        /* \"#utility.yul\":697:701   */\n      0x11\n        /* \"#utility.yul\":694:695   */\n      0x04\n        /* \"#utility.yul\":687:702   */\n      mstore\n        /* \"#utility.yul\":721:725   */\n      0x24\n        /* \"#utility.yul\":718:719   */\n      0x00\n        /* \"#utility.yul\":711:726   */\n      revert\n        /* \"#utility.yul\":738:929   */\n    tag_13:\n        /* \"#utility.yul\":778:781   */\n      0x00\n        /* \"#utility.yul\":797:817   */\n      tag_29\n        /* \"#utility.yul\":815:816   */\n      dup3\n        /* \"#utility.yul\":797:817   */\n      tag_17\n      jump\t// in\n    tag_29:\n        /* \"#utility.yul\":792:817   */\n      swap2\n      pop\n        /* \"#utility.yul\":831:851   */\n      tag_30\n        /* \"#utility.yul\":849:850   */\n      dup4\n        /* \"#utility.yul\":831:851   */\n      tag_17\n      jump\t// in\n    tag_30:\n        /* \"#utility.yul\":826:851   */\n      swap3\n      pop\n        /* \"#utility.yul\":874:875   */\n      dup3\n        /* \"#utility.yul\":871:872   */\n      dup3\n        /* \"#utility.yul\":867:876   */\n      add\n        /* \"#utility.yul\":860:876   */\n      swap1\n      pop\n        /* \"#utility.yul\":895:898   */\n      dup1\n        /* \"#utility.yul\":892:893   */\n      dup3\n        /* \"#utility.yul\":889:899   */\n      gt\n        /* \"#utility.yul\":886:922   */\n      iszero\n      tag_31\n      jumpi\n        /* \"#utility.yul\":902:920   */\n      tag_32\n      tag_19\n      jump\t// in\n    tag_32:\n        /* \"#utility.yul\":886:922   */\n    tag_31:\n        /* \"#utility.yul\":738:929   */\n      swap3\n      swap2\n      pop\n      pop\n      jump\t// out\n        /* \"#utility.yul\":935:1345   */\n    tag_16:\n        /* \"#utility.yul\":975:982   */\n      0x00\n        /* \"#utility.yul\":998:1018   */\n      tag_34\n        /* \"#utility.yul\":1016:1017   */\n      dup3\n        /* \"#utility.yul\":998:1018   */\n      tag_17\n      jump\t// in\n    tag_34:\n        /* \"#utility.yul\":993:1018   */\n      swap2\n      pop\n        /* \"#utility.yul\":1032:1052   */\n      tag_35\n        /* \"#utility.yul\":1050:1051   */\n      dup4\n        /* \"#utility.yul\":1032:1052   */\n      tag_17\n      jump\t// in\n    tag_35:\n        /* \"#utility.yul\":1027:1052   */\n      swap3\n      pop\n        /* \"#utility.yul\":1087:1088   */\n      dup3\n        /* \"#utility.yul\":1084:1085   */\n      dup3\n        /* \"#utility.yul\":1080:1089   */\n      mul\n        /* \"#utility.yul\":1109:1139   */\n      tag_36\n        /* \"#utility.yul\":1127:1138   */\n      dup2\n        /* \"#utility.yul\":1109:1139   */\n      tag_17\n      jump\t// in\n    tag_36:\n        /* \"#utility.yul\":1098:1139   */\n      swap2\n      pop\n        /* \"#utility.yul\":1288:1289   */\n      dup3\n        /* \"#utility.yul\":1279:1286   */\n      dup3\n        /* \"#utility.yul\":1275:1290   */\n      div\n        /* \"#utility.yul\":1272:1273   */\n      dup5\n        /* \"#utility.yul\":1269:1291   */\n      eq\n        /* \"#utility.yul\":1249:1250   */\n      dup4\n        /* \"#utility.yul\":1242:1251   */\n      iszero\n        /* \"#utility.yul\":1222:1305   */\n      or\n        /* \"#utility.yul\":1199:1338   */\n      tag_37\n      jumpi\n        /* \"#utility.yul\":1318:1336   */\n      tag_38\n      tag_19\n      jump\t// in\n    tag_38:\n        /* \"#utility.yul\":1199:1338   */\n    tag_37:\n        /* \"#utility.yul\":983:1345   */\n      pop\n        /* \"#utility.yul\":935:1345   */\n      swap3\n      swap2\n      pop\n      pop\n      jump\t// out\n\n    auxdata: 0xa264697066735822122091815a205c1500e1d0ad1028b2103bc032ad2449134f7004eb0c03a9a9d2ce7264736f6c63430008120033\n}\n",
				"bytecode": {
					"linkReferences": {},
					"object": "608060405234801561001057600080fd5b50600080819055506101b5806100276000396000f3fe608060405234801561001057600080fd5b50600436106100365760003560e01c806306661abd1461003b5780636d4ce63c14610045575b600080fd5b610043610064565b005b61004d61007b565b60405161005b9291906100b1565b60405180910390f35b60016000546100739190610109565b600081905550565b6000806000546003600054610090919061013d565b915091509091565b6000819050919050565b6100ab81610098565b82525050565b60006040820190506100c660008301856100a2565b6100d360208301846100a2565b9392505050565b7f4e487b7100000000000000000000000000000000000000000000000000000000600052601160045260246000fd5b600061011482610098565b915061011f83610098565b9250828201905080821115610137576101366100da565b5b92915050565b600061014882610098565b915061015383610098565b925082820261016181610098565b91508282048414831517610178576101776100da565b5b509291505056fea264697066735822122091815a205c1500e1d0ad1028b2103bc032ad2449134f7004eb0c03a9a9d2ce7264736f6c63430008120033",
					"opcodes": "PUSH1 0x80 PUSH1 0x40 MSTORE CALLVALUE DUP1 ISZERO PUSH2 0x10 JUMPI PUSH1 0x0 DUP1 REVERT JUMPDEST POP PUSH1 0x0 DUP1 DUP2 SWAP1 SSTORE POP PUSH2 0x1B5 DUP1 PUSH2 0x27 PUSH1 0x0 CODECOPY PUSH1 0x0 RETURN INVALID PUSH1 0x80 PUSH1 0x40 MSTORE CALLVALUE DUP1 ISZERO PUSH2 0x10 JUMPI PUSH1 0x0 DUP1 REVERT JUMPDEST POP PUSH1 0x4 CALLDATASIZE LT PUSH2 0x36 JUMPI PUSH1 0x0 CALLDATALOAD PUSH1 0xE0 SHR DUP1 PUSH4 0x6661ABD EQ PUSH2 0x3B JUMPI DUP1 PUSH4 0x6D4CE63C EQ PUSH2 0x45 JUMPI JUMPDEST PUSH1 0x0 DUP1 REVERT JUMPDEST PUSH2 0x43 PUSH2 0x64 JUMP JUMPDEST STOP JUMPDEST PUSH2 0x4D PUSH2 0x7B JUMP JUMPDEST PUSH1 0x40 MLOAD PUSH2 0x5B SWAP3 SWAP2 SWAP1 PUSH2 0xB1 JUMP JUMPDEST PUSH1 0x40 MLOAD DUP1 SWAP2 SUB SWAP1 RETURN JUMPDEST PUSH1 0x1 PUSH1 0x0 SLOAD PUSH2 0x73 SWAP2 SWAP1 PUSH2 0x109 JUMP JUMPDEST PUSH1 0x0 DUP2 SWAP1 SSTORE POP JUMP JUMPDEST PUSH1 0x0 DUP1 PUSH1 0x0 SLOAD PUSH1 0x3 PUSH1 0x0 SLOAD PUSH2 0x90 SWAP2 SWAP1 PUSH2 0x13D JUMP JUMPDEST SWAP2 POP SWAP2 POP SWAP1 SWAP2 JUMP JUMPDEST PUSH1 0x0 DUP2 SWAP1 POP SWAP2 SWAP1 POP JUMP JUMPDEST PUSH2 0xAB DUP2 PUSH2 0x98 JUMP JUMPDEST DUP3 MSTORE POP POP JUMP JUMPDEST PUSH1 0x0 PUSH1 0x40 DUP3 ADD SWAP1 POP PUSH2 0xC6 PUSH1 0x0 DUP4 ADD DUP6 PUSH2 0xA2 JUMP JUMPDEST PUSH2 0xD3 PUSH1 0x20 DUP4 ADD DUP5 PUSH2 0xA2 JUMP JUMPDEST SWAP4 SWAP3 POP POP POP JUMP JUMPDEST PUSH32 0x4E487B7100000000000000000000000000000000000000000000000000000000 PUSH1 0x0 MSTORE PUSH1 0x11 PUSH1 0x4 MSTORE PUSH1 0x24 PUSH1 0x0 REVERT JUMPDEST PUSH1 0x0 PUSH2 0x114 DUP3 PUSH2 0x98 JUMP JUMPDEST SWAP2 POP PUSH2 0x11F DUP4 PUSH2 0x98 JUMP JUMPDEST SWAP3 POP DUP3 DUP3 ADD SWAP1 POP DUP1 DUP3 GT ISZERO PUSH2 0x137 JUMPI PUSH2 0x136 PUSH2 0xDA JUMP JUMPDEST JUMPDEST SWAP3 SWAP2 POP POP JUMP JUMPDEST PUSH1 0x0 PUSH2 0x148 DUP3 PUSH2 0x98 JUMP JUMPDEST SWAP2 POP PUSH2 0x153 DUP4 PUSH2 0x98 JUMP JUMPDEST SWAP3 POP DUP3 DUP3 MUL PUSH2 0x161 DUP2 PUSH2 0x98 JUMP JUMPDEST SWAP2 POP DUP3 DUP3 DIV DUP5 EQ DUP4 ISZERO OR PUSH2 0x178 JUMPI PUSH2 0x177 PUSH2 0xDA JUMP JUMPDEST JUMPDEST POP SWAP3 SWAP2 POP POP JUMP INVALID LOG2 PUSH5 0x6970667358 0x22 SLT KECCAK256 SWAP2 DUP2 GAS KECCAK256 0x5C ISZERO STOP 0xE1 0xD0 0xAD LT 0x28 0xB2 LT EXTCODESIZE 0xC0 ORIGIN 0xAD 0x24 0x49 SGT 0x4F PUSH17 0x4EB0C03A9A9D2CE7264736F6C63430008 SLT STOP CALLER "
				},
				"gasEstimates": {
					"creation": {
						"codeDepositCost": "87400",
						"executionCost": "5149",
						"totalCost": "92549"
					},
					"external": {
						"count()": "infinite",
						"get()": "infinite"
					}
				},
				"methodIdentifiers": {
					"count()": "06661abd",
					"get()": "6d4ce63c"
				}
			},
			"storageLayout": {
				"storage": [
					{
						"astId": 3,
						"contract": "demo.sol:Counter",
						"label": "counter",
						"offset": 0,
						"slot": "0",
						"type": "t_uint256"
					}
				],
				"types": {
					"t_uint256": {
						"encoding": "inplace",
						"label": "uint256",
						"numberOfBytes": "32"
					}
				}
			},
			"userdoc": {
				"kind": "user",
				"methods": {},
				"version": 1
			}
		}
	}
}