{
	"testOverflow.sol": {
		"testOverflow": {
			"abi": [
				{
					"inputs": [],
					"name": "add1",
					"outputs": [
						{
							"internalType": "uint8",
							"name": "",
							"type": "uint8"
						}
					],
					"stateMutability": "pure",
					"type": "function"
				},
				{
					"inputs": [],
					"name": "add2",
					"outputs": [
						{
							"internalType": "uint8",
							"name": "",
							"type": "uint8"
						}
					],
					"stateMutability": "pure",
					"type": "function"
				}
			],
			"devdoc": {
				"kind": "dev",
				"methods": {},
				"version": 1
			},
			"evm": {
				"assembly": "    /* \"testOverflow.sol\":57:337  contract testOverflow {... */\n  mstore(0x40, 0x80)\n  callvalue\n  dup1\n  iszero\n  tag_1\n  jumpi\n  0x00\n  dup1\n  revert\ntag_1:\n  pop\n  dataSize(sub_0)\n  dup1\n  dataOffset(sub_0)\n  0x00\n  codecopy\n  0x00\n  return\nstop\n\nsub_0: assembly {\n        /* \"testOverflow.sol\":57:337  contract testOverflow {... */\n      mstore(0x40, 0x80)\n      callvalue\n      dup1\n      iszero\n      tag_1\n      jumpi\n      0x00\n      dup1\n      revert\n    tag_1:\n      pop\n      jumpi(tag_2, lt(calldatasize, 0x04))\n      shr(0xe0, calldataload(0x00))\n      dup1\n      0x35921a\n      eq\n      tag_3\n      jumpi\n      dup1\n      0x6c1f222f\n      eq\n      tag_4\n      jumpi\n    tag_2:\n      0x00\n      dup1\n      revert\n        /* \"testOverflow.sol\":86:203  function add1() public pure returns (uint8) {... */\n    tag_3:\n      tag_5\n      tag_6\n      jump\t// in\n    tag_5:\n      mload(0x40)\n      tag_7\n      swap2\n      swap1\n      tag_8\n      jump\t// in\n    tag_7:\n      mload(0x40)\n      dup1\n      swap2\n      sub\n      swap1\n      return\n        /* \"testOverflow.sol\":209:330  function add2() public pure returns (uint8) {... */\n    tag_4:\n      tag_9\n      tag_10\n      jump\t// in\n    tag_9:\n      mload(0x40)\n      tag_11\n      swap2\n      swap1\n      tag_8\n      jump\t// in\n    tag_11:\n      mload(0x40)\n      dup1\n      swap2\n      sub\n      swap1\n      return\n        /* \"testOverflow.sol\":86:203  function add1() public pure returns (uint8) {... */\n    tag_6:\n        /* \"testOverflow.sol\":123:128  uint8 */\n      0x00\n        /* \"testOverflow.sol\":140:147  uint8 x */\n      dup1\n        /* \"testOverflow.sol\":150:153  128 */\n      0x80\n        /* \"testOverflow.sol\":140:153  uint8 x = 128 */\n      swap1\n      pop\n        /* \"testOverflow.sol\":163:170  uint8 y */\n      0x00\n        /* \"testOverflow.sol\":177:178  2 */\n      0x02\n        /* \"testOverflow.sol\":173:174  x */\n      dup3\n        /* \"testOverflow.sol\":173:178  x * 2 */\n      tag_13\n      swap2\n      swap1\n      tag_14\n      jump\t// in\n    tag_13:\n        /* \"testOverflow.sol\":163:178  uint8 y = x * 2 */\n      swap1\n      pop\n        /* \"testOverflow.sol\":195:196  y */\n      dup1\n        /* \"testOverflow.sol\":188:196  return y */\n      swap3\n      pop\n      pop\n      pop\n        /* \"testOverflow.sol\":86:203  function add1() public pure returns (uint8) {... */\n      swap1\n      jump\t// out\n        /* \"testOverflow.sol\":209:330  function add2() public pure returns (uint8) {... */\n    tag_10:\n        /* \"testOverflow.sol\":246:251  uint8 */\n      0x00\n        /* \"testOverflow.sol\":263:270  uint8 i */\n      dup1\n        /* \"testOverflow.sol\":273:276  240 */\n      0xf0\n        /* \"testOverflow.sol\":263:276  uint8 i = 240 */\n      swap1\n      pop\n        /* \"testOverflow.sol\":286:293  uint8 j */\n      0x00\n        /* \"testOverflow.sol\":296:298  16 */\n      0x10\n        /* \"testOverflow.sol\":286:298  uint8 j = 16 */\n      swap1\n      pop\n        /* \"testOverflow.sol\":308:315  uint8 k */\n      0x00\n        /* \"testOverflow.sol\":322:323  j */\n      dup2\n        /* \"testOverflow.sol\":318:319  i */\n      dup4\n        /* \"testOverflow.sol\":318:323  i + j */\n      tag_16\n      swap2\n      swap1\n      tag_17\n      jump\t// in\n    tag_16:\n        /* \"testOverflow.sol\":308:323  uint8 k = i + j */\n      swap1\n      pop\n        /* \"testOverflow.sol\":253:330  {... */\n      pop\n      pop\n      pop\n        /* \"testOverflow.sol\":209:330  function add2() public pure returns (uint8) {... */\n      swap1\n      jump\t// out\n        /* \"#utility.yul\":7:93   */\n    tag_18:\n        /* \"#utility.yul\":42:49   */\n      0x00\n        /* \"#utility.yul\":82:86   */\n      0xff\n        /* \"#utility.yul\":75:80   */\n      dup3\n        /* \"#utility.yul\":71:87   */\n      and\n        /* \"#utility.yul\":60:87   */\n      swap1\n      pop\n        /* \"#utility.yul\":7:93   */\n      swap2\n      swap1\n      pop\n      jump\t// out\n        /* \"#utility.yul\":99:211   */\n    tag_19:\n        /* \"#utility.yul\":182:204   */\n      tag_24\n        /* \"#utility.yul\":198:203   */\n      dup2\n        /* \"#utility.yul\":182:204   */\n      tag_18\n      jump\t// in\n    tag_24:\n        /* \"#utility.yul\":177:180   */\n      dup3\n        /* \"#utility.yul\":170:205   */\n      mstore\n        /* \"#utility.yul\":99:211   */\n      pop\n      pop\n      jump\t// out\n        /* \"#utility.yul\":217:431   */\n    tag_8:\n        /* \"#utility.yul\":306:310   */\n      0x00\n        /* \"#utility.yul\":344:346   */\n      0x20\n        /* \"#utility.yul\":333:342   */\n      dup3\n        /* \"#utility.yul\":329:347   */\n      add\n        /* \"#utility.yul\":321:347   */\n      swap1\n      pop\n        /* \"#utility.yul\":357:424   */\n      tag_26\n        /* \"#utility.yul\":421:422   */\n      0x00\n        /* \"#utility.yul\":410:419   */\n      dup4\n        /* \"#utility.yul\":406:423   */\n      add\n        /* \"#utility.yul\":397:403   */\n      dup5\n        /* \"#utility.yul\":357:424   */\n      tag_19\n      jump\t// in\n    tag_26:\n        /* \"#utility.yul\":217:431   */\n      swap3\n      swap2\n      pop\n      pop\n      jump\t// out\n        /* \"#utility.yul\":437:617   */\n    tag_20:\n        /* \"#utility.yul\":485:562   */\n      0x4e487b7100000000000000000000000000000000000000000000000000000000\n        /* \"#utility.yul\":482:483   */\n      0x00\n        /* \"#utility.yul\":475:563   */\n      mstore\n        /* \"#utility.yul\":582:586   */\n      0x11\n        /* \"#utility.yul\":579:580   */\n      0x04\n        /* \"#utility.yul\":572:587   */\n      mstore\n        /* \"#utility.yul\":606:610   */\n      0x24\n        /* \"#utility.yul\":603:604   */\n      0x00\n        /* \"#utility.yul\":596:611   */\n      revert\n        /* \"#utility.yul\":623:894   */\n    tag_14:\n        /* \"#utility.yul\":661:668   */\n      0x00\n        /* \"#utility.yul\":684:702   */\n      tag_29\n        /* \"#utility.yul\":700:701   */\n      dup3\n        /* \"#utility.yul\":684:702   */\n      tag_18\n      jump\t// in\n    tag_29:\n        /* \"#utility.yul\":679:702   */\n      swap2\n      pop\n        /* \"#utility.yul\":716:734   */\n      tag_30\n        /* \"#utility.yul\":732:733   */\n      dup4\n        /* \"#utility.yul\":716:734   */\n      tag_18\n      jump\t// in\n    tag_30:\n        /* \"#utility.yul\":711:734   */\n      swap3\n      pop\n        /* \"#utility.yul\":769:770   */\n      dup3\n        /* \"#utility.yul\":766:767   */\n      dup3\n        /* \"#utility.yul\":762:771   */\n      mul\n        /* \"#utility.yul\":791:819   */\n      tag_31\n        /* \"#utility.yul\":807:818   */\n      dup2\n        /* \"#utility.yul\":791:819   */\n      tag_18\n      jump\t// in\n    tag_31:\n        /* \"#utility.yul\":780:819   */\n      swap2\n      pop\n        /* \"#utility.yul\":851:862   */\n      dup1\n        /* \"#utility.yul\":842:849   */\n      dup3\n        /* \"#utility.yul\":839:863   */\n      eq\n        /* \"#utility.yul\":829:887   */\n      tag_32\n      jumpi\n        /* \"#utility.yul\":867:885   */\n      tag_33\n      tag_20\n      jump\t// in\n    tag_33:\n        /* \"#utility.yul\":829:887   */\n    tag_32:\n        /* \"#utility.yul\":669:894   */\n      pop\n        /* \"#utility.yul\":623:894   */\n      swap3\n      swap2\n      pop\n      pop\n      jump\t// out\n        /* \"#utility.yul\":900:1088   */\n    tag_17:\n        /* \"#utility.yul\":938:941   */\n      0x00\n        /* \"#utility.yul\":957:975   */\n      tag_35\n        /* \"#utility.yul\":973:974   */\n      dup3\n        /* \"#utility.yul\":957:975   */\n      tag_18\n      jump\t// in\n    tag_35:\n        /* \"#utility.yul\":952:975   */\n      swap2\n      pop\n        /* \"#utility.yul\":989:1007   */\n      tag_36\n        /* \"#utility.yul\":1005:1006   */\n      dup4\n        /* \"#utility.yul\":989:1007   */\n      tag_18\n      jump\t// in\n    tag_36:\n        /* \"#utility.yul\":984:1007   */\n      swap3\n      pop\n        /* \"#utility.yul\":1030:1031   */\n      dup3\n        /* \"#utility.yul\":1027:1028   */\n      dup3\n        /* \"#utility.yul\":1023:1032   */\n      add\n        /* \"#utility.yul\":1016:1032   */\n      swap1\n      pop\n        /* \"#utility.yul\":1053:1057   */\n      0xff\n        /* \"#utility.yul\":1048:1051   */\n      dup2\n        /* \"#utility.yul\":1045:1058   */\n      gt\n        /* \"#utility.yul\":1042:1081   */\n      iszero\n      tag_37\n      jumpi\n        /* \"#utility.yul\":1061:1079   */\n      tag_38\n      tag_20\n      jump\t// in\n    tag_38:\n        /* \"#utility.yul\":1042:1081   */\n    tag_37:\n        /* \"#utility.yul\":900:1088   */\n      swap3\n      swap2\n      pop\n      pop\n      jump\t// out\n\n    auxdata: 0xa2646970667358221220e157ca153dbc52a5c69929fb3da1201755f8b328a0909101385de4fedfaa815564736f6c63430008120033\n}\n",
				"bytecode": {
					"linkReferences": {},
					"object": "608060405234801561001057600080fd5b506101c7806100206000396000f3fe608060405234801561001057600080fd5b50600436106100355760003560e01c806235921a1461003a5780636c1f222f14610058575b600080fd5b610042610076565b60405161004f91906100d5565b60405180910390f35b610060610096565b60405161006d91906100d5565b60405180910390f35b60008060809050600060028261008c919061011f565b9050809250505090565b60008060f09050600060109050600081836100b1919061015c565b905050505090565b600060ff82169050919050565b6100cf816100b9565b82525050565b60006020820190506100ea60008301846100c6565b92915050565b7f4e487b7100000000000000000000000000000000000000000000000000000000600052601160045260246000fd5b600061012a826100b9565b9150610135836100b9565b9250828202610143816100b9565b9150808214610155576101546100f0565b5b5092915050565b6000610167826100b9565b9150610172836100b9565b9250828201905060ff81111561018b5761018a6100f0565b5b9291505056fea2646970667358221220e157ca153dbc52a5c69929fb3da1201755f8b328a0909101385de4fedfaa815564736f6c63430008120033",
					"opcodes": "PUSH1 0x80 PUSH1 0x40 MSTORE CALLVALUE DUP1 ISZERO PUSH2 0x10 JUMPI PUSH1 0x0 DUP1 REVERT JUMPDEST POP PUSH2 0x1C7 DUP1 PUSH2 0x20 PUSH1 0x0 CODECOPY PUSH1 0x0 RETURN INVALID PUSH1 0x80 PUSH1 0x40 MSTORE CALLVALUE DUP1 ISZERO PUSH2 0x10 JUMPI PUSH1 0x0 DUP1 REVERT JUMPDEST POP PUSH1 0x4 CALLDATASIZE LT PUSH2 0x35 JUMPI PUSH1 0x0 CALLDATALOAD PUSH1 0xE0 SHR DUP1 PUSH3 0x35921A EQ PUSH2 0x3A JUMPI DUP1 PUSH4 0x6C1F222F EQ PUSH2 0x58 JUMPI JUMPDEST PUSH1 0x0 DUP1 REVERT JUMPDEST PUSH2 0x42 PUSH2 0x76 JUMP JUMPDEST PUSH1 0x40 MLOAD PUSH2 0x4F SWAP2 SWAP1 PUSH2 0xD5 JUMP JUMPDEST PUSH1 0x40 MLOAD DUP1 SWAP2 SUB SWAP1 RETURN JUMPDEST PUSH2 0x60 PUSH2 0x96 JUMP JUMPDEST PUSH1 0x40 MLOAD PUSH2 0x6D SWAP2 SWAP1 PUSH2 0xD5 JUMP JUMPDEST PUSH1 0x40 MLOAD DUP1 SWAP2 SUB SWAP1 RETURN JUMPDEST PUSH1 0x0 DUP1 PUSH1 0x80 SWAP1 POP PUSH1 0x0 PUSH1 0x2 DUP3 PUSH2 0x8C SWAP2 SWAP1 PUSH2 0x11F JUMP JUMPDEST SWAP1 POP DUP1 SWAP3 POP POP POP SWAP1 JUMP JUMPDEST PUSH1 0x0 DUP1 PUSH1 0xF0 SWAP1 POP PUSH1 0x0 PUSH1 0x10 SWAP1 POP PUSH1 0x0 DUP2 DUP4 PUSH2 0xB1 SWAP2 SWAP1 PUSH2 0x15C JUMP JUMPDEST SWAP1 POP POP POP POP SWAP1 JUMP JUMPDEST PUSH1 0x0 PUSH1 0xFF DUP3 AND SWAP1 POP SWAP2 SWAP1 POP JUMP JUMPDEST PUSH2 0xCF DUP2 PUSH2 0xB9 JUMP JUMPDEST DUP3 MSTORE POP POP JUMP JUMPDEST PUSH1 0x0 PUSH1 0x20 DUP3 ADD SWAP1 POP PUSH2 0xEA PUSH1 0x0 DUP4 ADD DUP5 PUSH2 0xC6 JUMP JUMPDEST SWAP3 SWAP2 POP POP JUMP JUMPDEST PUSH32 0x4E487B7100000000000000000000000000000000000000000000000000000000 PUSH1 0x0 MSTORE PUSH1 0x11 PUSH1 0x4 MSTORE PUSH1 0x24 PUSH1 0x0 REVERT JUMPDEST PUSH1 0x0 PUSH2 0x12A DUP3 PUSH2 0xB9 JUMP JUMPDEST SWAP2 POP PUSH2 0x135 DUP4 PUSH2 0xB9 JUMP JUMPDEST SWAP3 POP DUP3 DUP3 MUL PUSH2 0x143 DUP2 PUSH2 0xB9 JUMP JUMPDEST SWAP2 POP DUP1 DUP3 EQ PUSH2 0x155 JUMPI PUSH2 0x154 PUSH2 0xF0 JUMP JUMPDEST JUMPDEST POP SWAP3 SWAP2 POP POP JUMP JUMPDEST PUSH1 0x0 PUSH2 0x167 DUP3 PUSH2 0xB9 JUMP JUMPDEST SWAP2 POP PUSH2 0x172 DUP4 PUSH2 0xB9 JUMP JUMPDEST SWAP3 POP DUP3 DUP3 ADD SWAP1 POP PUSH1 0xFF DUP2 GT ISZERO PUSH2 0x18B JUMPI PUSH2 0x18A PUSH2 0xF0 JUMP JUMPDEST JUMPDEST SWAP3 SWAP2 POP POP JUMP INVALID LOG2 PUSH5 0x6970667358 0x22 SLT KECCAK256 0xE1 JUMPI 0xCA ISZERO RETURNDATASIZE 0xBC MSTORE 0xA5 0xC6 SWAP10 0x29 0xFB RETURNDATASIZE LOG1 KECCAK256 OR SSTORE 0xF8 0xB3 0x28 LOG0 SWAP1 SWAP2 ADD CODESIZE 0x5D 0xE4 INVALID 0xDF 0xAA DUP2 SSTORE PUSH5 0x736F6C6343 STOP ADDMOD SLT STOP CALLER "
				},
				"gasEstimates": {
					"creation": {
						"codeDepositCost": "91000",
						"executionCost": "141",
						"totalCost": "91141"
					},
					"external": {
						"add1()": "infinite",
						"add2()": "infinite"
					}
				},
				"methodIdentifiers": {
					"add1()": "0035921a",
					"add2()": "6c1f222f"
				}
			},
			"storageLayout": {
				"storage": [],
				"types": null
			},
			"userdoc": {
				"kind": "user",
				"methods": {},
				"version": 1
			}
		}
	}
}